:100000000C9487050C94CE050C94CE050C94CE056B
:100010000C94CE050C94CE050C94CE050C94CE0514
:100020000C94CE050C94CE050C94FB250C94CF2695
:100030000C94E41D0C94CE050C94CE050C94CE05C6
:100040000C94CE050C94CE050C94CE050C94CE05E4
:100050000C94CE050C943B1E0C94CE050C94CE054E
:100060000C94CE050C94CE050C94CE050C94CE05C4
:100070000C94CE050C94CE050C94CE050C94CE05B4
:100080000C94CE050C94CE050C94CE050C94CE05A4
:100090000C94CE050C94CE050C94CE050C94CE0594
:1000A0000C94CE050C94CE050C94CE0535001400AE
:1000B0001A000800150017001C0018000C001200A0
:1000C00013002D002A002B0000000400160007007A
:1000D00009000A000B000D000E000F00330028007D
:1000E000E10000001D001B000600190005001100C2
:1000F00010003600370052004C00E00000002900DC
:10010000E200E3008B0000002C0000001209500008
:1001100051004F0044454255473A2064697361627B
:100120006C65642E0A0044454255473A20656E616D
:10013000626C65642E0A000A002530313662003A8E
:10014000200025303258000A722F632030313233BC
:100150003435363738394142434445460A007267E0
:10016000626C696768742073657420687376205BBD
:100170004E4F454550524F4D5D3A2025752C257503
:100180002C25750A007267626C6967687420736554
:100190007420687376205B454550524F4D5D3A2080
:1001A00025752C25752C25750A007267626C6967A8
:1001B00068742064697361626C65205B45455052C8
:1001C0004F4D5D3A207267626C696768745F636F58
:1001D0006E6669672E656E61626C65203D202575CF
:1001E0000A007267626C6967687420656E61626C90
:1001F00065205B454550524F4D5D3A207267626CF9
:10020000696768745F636F6E6669672E656E6162A9
:100210006C65203D2025750A007267626C6967680D
:100220007420746F67676C65205B454550524F4D75
:100230005D3A207267626C696768745F636F6E66AF
:1002400069672E656E61626C65203D2025750A0028
:100250007267626C69676874206D6F6465205B4EBD
:100260004F454550524F4D5D3A2025750A00726743
:10027000626C69676874206D6F6465205B454550EA
:10028000524F4D5D3A2025750A007267626C6967AE
:1002900068745F696E6974207267626C69676874FC
:1002A0005F636F6E6669672E6D6F6465203D2030F9
:1002B0002E2057726974652064656661756C7420C0
:1002C00076616C75657320746F20454550524F4DB3
:1002D0002E0A007267626C696768745F696E697480
:1002E000206565636F6E666967206973206E6F7441
:1002F00020656E61626C65642E0A007267626C69CB
:100300006768745F696E6974207374617274210A1E
:10031000007267626C696768745F696E69742063F4
:10032000616C6C65642E0A007267626C6967687440
:100330005F636F6E6669672E7370656564203D202C
:1003400025640A007267626C696768745F636F6E28
:100350006669672E76616C203D2025640A0072670D
:10036000626C696768745F636F6E6669672E73613C
:1003700074203D2025640A007267626C69676874A6
:100380005F636F6E6669672E687565203D20256422
:100390000A007267686C696768745F636F6E66698C
:1003A000672E6D6F6465203D2025640A00726762C8
:1003B0006C696768745F636F6E6669672E656E61EE
:1003C000626C65203D2025640A007267626C696773
:1003D00068745F636F6E66696720454550524F4D84
:1003E0003A0A0000010101010101010101020202BA
:1003F00002020202020203030303030303030404D1
:10040000040404040405050505050606060606079A
:100410000707070708080808090909090A0A0A0B53
:100420000B0B0C0C0C0D0D0D0E0E0E0F0F0F1010F4
:10043000111111121213131414151516161717187B
:100440001819191A1A1B1B1C1D1D1E1E1F202021E6
:100450002222232424252626272829292A2B2C2D2D
:100460002D2E2F30313232333435363738393A3B4E
:100470003C3D3E3F404142434445464748494A4C43
:100480004D4E4F50515354555658595A5B5D5E5F0F
:10049000616264656668696B6C6D6F7072737577A5
:1004A000787A7B7D7E8082838587888A8C8E8F9107
:1004B000939596989A9C9EA0A2A3A5A7A9ABADAF31
:1004C000B1B3B5B7BABCBEC0C2C4C6C9CBCDCFD11B
:1004D000D4D6D8DBDDDFE2E4E7E9EBEEF0F3F5F8C4
:1004E000FAFDFF0A002530325820006B6579626FF3
:1004F0006172645F7265706F72743A20000A002541
:10050000303258006B6579626F6172645F73657435
:100510005F6C65643A20003F00433E20004C256438
:100520000A0074696D65725F7265616433322829EF
:100530003A202530346C580A006B6579626F61721D
:10054000645F69646C653A2025580A006B657962BE
:100550006F6172645F70726F746F636F6C3A2025A5
:10056000580A00686F73745F6B6579626F617264BB
:100570005F6C65647328293A2025580A000A092D02
:1005800020537461747573202D0A004743433A2049
:10059000382E342E30204156522D4C4942433A20B9
:1005A000322E302E30204156525F415243483A207D
:1005B000617672350A004F5054494F4E533A204CE1
:1005C00055464120434F4E534F4C4520434F4D4DD0
:1005D000414E4420343039360A004255494C443AA1
:1005E0002020284170722020342032303231290AF4
:1005F000005649443A2030784645454428324770F1
:1006000029205049443A2030783030303128464C47
:1006100054343050325329205645523A20307830E5
:100620003030310A000A092D2056657273696F6EE9
:10063000202D0A000A092D20436F6E736F6C652010
:100640002D0A4553432F713A09717569740A000ADE
:10065000092D204D61676963202D0A443A094465DC
:10066000627567204D65737361676520546F6767B6
:100670006C650A583A094D61747269782044656264
:100680007567204D6F646520546F67676C65202D1A
:100690002053686F77206B6579707265737365732B
:1006A00020696E206D617472697820677269640ACE
:1006B0004B3A094B6579626F6172642044656275DB
:1006C0006720546F67676C65202D2053686F772013
:1006D0006B65797072657373207265706F72740ADE
:1006E0004D3A094465627567204D6F7573652054F6
:1006F0006F67676C650A563A0956657273696F6E63
:100700000A533A095374617475730A433A09416391
:1007100074697661746520436F6E736F6C65204DEC
:100720006F64650A46312D4631303A095377697452
:10073000636820746F204C6179657220302D3920F8
:1007400028463130203D204C30290A302D393A09D5
:1007500053776974636820746F204C6179657220E7
:10076000302D390A47524156453A09537769746327
:100770006820746F204C6179657220302028616C8C
:100780007465726E617465290A423A094A756D7022
:1007900020746F20426F6F746C6F616465720A45DC
:1007A00053433A094A756D7020746F20426F6F741D
:1007B0006C6F616465722028616C7465726E61741F
:1007C00065290A453A095072696E742045455052B0
:1007D0004F4D2053657474696E67730A42535041DC
:1007E00043453A09436C65617220454550524F4D6F
:1007F0000A000A002575002E6E6B726F3A20000AFF
:10080000002575002E737761705F6261636B736C96
:100810006173685F6261636B73706163653A200046
:100820000A002575002E737761705F6772617665C7
:100830005F6573633A20000A002575002E6E6F5FB6
:100840006775693A20000A002575002E737761707C
:100850005F72616C745F726775693A20000A0025E7
:1008600075002E737761705F6C616C745F6C677577
:10087000693A20000A002575002E737761705F7257
:1008800063746C5F726775693A20000A0025750011
:100890002E737761705F6C63746C5F6C6775693A17
:1008A00020000A002575002E636170736C6F636B06
:1008B0005F746F5F636F6E74726F6C3A20000A0032
:1008C0002575002E737761705F636F6E74726F6C45
:1008D0005F636170736C6F636B3A20000A002530B0
:1008E0003258006B65796D61705F636F6E66696722
:1008F0002E7261773A20000A002575002E6D6F7503
:1009000073653A20000A002575002E6B6579626FC9
:100910006172643A20000A002575002E6D617472C0
:1009200069783A20000A002575002E656E61626CB8
:10093000653A20000A002530325800646562756708
:100940005F636F6E6669672E7261773A20000A00F6
:1009500025750064656661756C745F6C617965729C
:100960003A20003F000A6D6F7573653A206F666626
:100970000A000A6D6F7573653A206F6E0A000A6B84
:100980006579626F6172643A206F66660A000A6B6D
:100990006579626F6172643A206F6E0A000A6D6158
:1009A000747269783A206F66660A000A6D61747223
:1009B00069783A206F6E0A000A64656275673A20AA
:1009C0006F66660A000A64656275673A206F6E0A90
:1009D000000A0A4A756D70696E6720746F20626F35
:1009E0006F746C6F616465722E2E2E2000433E2062
:1009F00000436C656172696E6720454550524F4DEA
:100A00000A006565636F6E6669673A0A005B735D2D
:100A1000004B6579626F6172642073746172742E29
:100A20000A005B575D005B535D005B525D005B44F9
:100A30005D005B435D00120346004C00540034002F
:100A4000300050003200530000000803320047001D
:100A5000700000000403090409024200020100A022
:100A6000FA0904000001030101000921110100013C
:100A70002240000705810308000A0904010002035F
:100A80000000000921110100012222000705820354
:100A900020000107050203200001120110010000DF
:100AA0000008EDFE01000100010200010631FF090E
:100AB00074A1010975150026FF00952075088102B3
:100AC0000976150026FF00952075089102C00501E2
:100AD0000906A101050719E029E715002501950878
:100AE000750181029501750881010507190029FF2B
:100AF000150026FF009506750881000508190129D3
:100B000005950575019102950175039101C01124A8
:100B10001FBECFEFDAE0DEBFCDBF04B603FE27C0B5
:100B20008091F0019091F101A091F201B091F30157
:100B30008730904BA740B04BD1F41092F001109247
:100B4000F1011092F2011092F30114BE84B7877F75
:100B500084BF0FB6F894A895809160008861809357
:100B60006000109260000FBEE0E0F8E3099511E02C
:100B7000A0E0B1E0EAE6F2E502C005900D92A632EF
:100B8000B107D9F721E0A6E2B1E001C01D92A03F74
:100B9000B207E1F70E9428230C94F7280C94000078
:100BA000FF93EF93E0912601F0912701309709F030
:100BB0000995EF91FF910895FC018591803011F026
:100BC000EFDFFBCF0895FF27E0E230E247FF0CC0E4
:100BD000419597FF09C0EDE26095709580959095DD
:100BE000611D711D811D911D27FF02C0219530E3FC
:100BF00050E2AA27660F771F881F991FAA1FA41704
:100C000010F0A41B63955A95A9F7AA3008F0A95FC4
:100C1000A05DAF93F395611571058105910541F7CD
:100C2000ED3211F4EF93F395F21718F43F93F39527
:100C3000FBCF8F91B5DFFA95E1F70895E991F9912E
:100C40008591803021F0853219F0AADFF9CF08951F
:100C500020E0E89455915532C1F3503311F4689473
:100C600055915A3348F4505390F3220F022E220F1D
:100C7000220F200D250FF4CF0EF421958991999123
:100C8000533619F3533729F1533559F1BC018827ED
:100C90009927E8945C3621F489919991689455914B
:100CA000543639F446EF7EF077FF0DC08FEF9FEF9B
:100CB0000AC055374AE039F0583540E121F0523644
:100CC00042E009F00895FF93EF937DDFEF91FF91EC
:100CD000B7CFFF93EF93FC0181918030B9F360DFD0
:100CE000FBCFFF93EF9368DFF1CFDF93CF93CDB7C7
:100CF000DEB72596A3DFCF91DF91089581E00895B7
:100D000081E008950C94800608950C9484061F9346
:100D1000CF93DF9300D000D00F92CDB7DEB74983D9
:100D20005A836B833091440189819A8131111DC0AE
:100D30006623B9F02223A9F00E94231B182F682FE5
:100D400089819A810E94CF1A69817A81812F0F90BF
:100D50000F900F900F900F90DF91CF911F910C94F7
:100D600053070E94FB1A182FEFCF0E94231B6981A3
:100D70007A81EDCFFC01262F408151816281738100
:100D800084810C948706CF93DF93EC0160E00E948E
:100D9000BA06BE01DF91CF910C9485060E94911C8A
:100DA000811102C00E94351D0C943D090C9440092C
:100DB00008950E9439160E94D8062FEF84E39CE024
:100DC000215080409040E1F700C000000C945F1E6D
:100DD0000F931F93CF93DF93EC0161E00E94BA065B
:100DE0008C01BE010E948206882341F1BE01C80128
:100DF0000E94C80F882311F1BE01C8010E941A1079
:100E00008823E1F0BE01C8010E943D118823B1F0A2
:100E1000BE01C8010E94D80E882381F08A818823F0
:100E200041F101308CE5180779F00F3D8CE518078A
:100E3000E9F001151C45E9F40E94D90680E0DF9134
:100E4000CF911F910F9108959091B501892F8E7FB9
:100E500090FF81608093B50180FF05C086E291E03C
:100E60000E94DC05EBCF84E191E0FACF0E94351DB2
:100E7000E5CFCE01DF91CF911F910F910C947E06AB
:100E800008950C94400781E008950C944307CF9394
:100E9000C82F0E9441078C2FCF910C94450790E0FA
:100EA00080E008950895972F70E02DE0929F600DE7
:100EB000711D1124FB0194E3899FE00DF11D1124A4
:100EC000EE0FFF1FE455FF4F859194910895FC01AB
:100ED000EE0FFF1FE95CFE4F859194910895CF932B
:100EE000DF930E9453070E946208EC01811521E5FF
:100EF0009207D0F5811530E5930708F096C081156B
:100F00009042F8F4C11581E0D807B8F4C03ED1058D
:100F100088F4C03CD10508F07BC0C130D10569F030
:100F2000209759F0CE010497813A910530F0D0E036
:100F3000C0E003C0C83ED105D0F7CE01DF91CF910C
:100F40000895C11590E4D90708F06CC0CE019F70D8
:100F5000C11520E3D20708F45EC0CE019927D3FF64
:100F60005EC0EC01D86CE9CF811535E5930700F53B
:100F7000811544E5940708F08DC0C11583E5D807B5
:100F800008F074C0C11592E5D90708F46AC0CE0113
:100F90008370992721E030E002C0220F331F8A9529
:100FA000E2F7C695C69580E2C89FE001112455C0BE
:100FB000811529E59207A0F4811538E5930708F01B
:100FC0006EC0811546E5940708F0B1CF0E94F9087C
:100FD000C82FD0E0DC2FCC27CC27DF71D062ADCF7B
:100FE000C1158AE5D80708F45FC0CE019056811577
:100FF000904208F09CCF8D2F8F710E94F90890E0ED
:10100000982F882788279F719C012C2BE901E6CF18
:10101000CE01805C91090E946707EC018ECFEC0144
:10102000D06C8BCFDF70D06A88CFE4E0969587953F
:10103000EA95E1F783702C2F26952695237040E2E0
:10104000249F90011124382B8C2F8370C1E0D0E0B5
:1010500002C0CC0FDD1F8A95E2F7C22BD32BDC68D0
:101060006CCFDC2FCC27C16FD06A67CFCE018370E5
:10107000992721E030E002C0220F331F8A95E2F762
:10108000C695C69590E2C99FE0011124C22BD32BCF
:10109000DA6853CFD82FCC27C46FD06A4ECFD82F61
:1010A000CC27C06FD06A49CF8C2F8F700E94F9086F
:1010B00034E0D695C7953A95E1F7CF709C2FEC01B7
:1010C000D0693BCF82389105B1F1B0F481339105FD
:1010D00009F475C048F48932910509F469C08A326F
:1010E000910509F473C008958533910509F459C039
:1010F0008933910501F10895833E9105A9F138F4F2
:10110000803E9105F9F0823E910549F10895863EB1
:101110009105A9F1873E9105C9F1843E910519F524
:101120002091E20121FF1FC08091E10184FD14C0E4
:1011300087EE90E008952091E1012370A1F080EE08
:1011400090E008952091E10120FD47C03091E20137
:1011500030FF09C024FF44C090E080E004C020912B
:10116000E10122FDF7CF08952091E10122FD3BC06E
:101170003091E20130FDE3CF24FFF5CFEDCF209198
:10118000E10123FFF0CF24FDE7CFD2CF2091E10191
:1011900023FD2CC03091E20131FFEECF84EE90E0D0
:1011A00008952091E10125FFDECF89E290E00895C6
:1011B0002091E10125FFD7CF85E390E008952091AC
:1011C000E10126FFD0CF8AE290E008952091E1016D
:1011D00026FFC9CF81E390E0089589E390E0089568
:1011E00083EE90E0089582EE90E0089586EE90E020
:1011F00008959091E10192FF06C0282F28712830B0
:10120000F9F4877F846093FF06C0282F2871283166
:10121000F1F4877E84612091E20120FF06C0382F1F
:1012200038713830D9F4877F816021FF06C0282FBC
:1012300028712831D1F4877E816194FD877E0895DD
:10124000282F24712430F9F68B7F8860DCCF282F7B
:101250002471243101F78B7E8861DDCF382F317105
:10126000313019F78E7F8860E0CF282F217121312E
:1012700021F78E7E8861E1CF08950C943C09089592
:101280000C943F09E82FF0E0EE0FFF1FE353FE4FF1
:10129000808191810895CF92DF92EF92FF920F9318
:1012A0001F93CF93DF9387E491E00E94DC058DECE0
:1012B000E82E81E0F82ED0E0C0E092E4C92E91E063
:1012C000D92E09E311E0DF93CF93DF92CF920E94F2
:1012D00075068FE391E00E94DC05F7018191919101
:1012E0007F010E94841C9F938F931F930F930E94F2
:1012F000750687E391E00E94DC0521968DB79EB7C5
:1013000008960FB6F8949EBF0FBE8DBFC430D105AE
:10131000D1F6DF91CF911F910F91FF90EF90DF9069
:10132000CF90089580EA8A95F1F70895F894E82F10
:10133000E295EF70F0E031A1282F2F7081E090E06E
:1013400001C0880F2A95EAF7982F9095932391A3CF
:1013500092A1892B82A378940895CF93DF9385EF90
:101360000E94960980E90E94960984E90E949609E4
:1013700081E90E949609C2E1D1E089910E94960913
:1013800081E0CF31D807C9F71092C6011092C5018C
:101390001092CE011092CD011092C8011092C70197
:1013A0001092D0011092CF011092CA011092C9017F
:1013B0001092D2011092D1011092CC011092CB0167
:1013C0001092D4011092D30184E00E94690ADF9147
:1013D000CF910C94CE06AF92BF92DF92EF92FF9224
:1013E0000F931F93CF93DF93CFE1D1E005EC11E092
:1013F000D12CEE24E394F12C8991F894E82FE29516
:10140000EF70F0E021A18F70A70102C0440F551FBB
:101410008A95E2F7CA01922F982B91A392A1809509
:10142000892382A378940E949209E2E1F1E030E0FE
:1014300020E0B12CA12C4191A42FA295AF70B0E077
:1014400090968C9190E04F7002C0959587954A9543
:10145000E2F780FD39C0C701022E02C0880F991F34
:101460000A94E2F7A82AB92A2F5F3F4F2D303105A1
:1014700011F7FE01319780810E949609F801808161
:101480009181A816B90619F1B182A08281E0D82A0B
:101490000E5F1F4FF1E0C332DF0709F0ADCF2D2DF6
:1014A00044E06DEC71E085EC91E00E946A0A0E94D4
:1014B000D6068D2DDF91CF911F910F91FF90EF9068
:1014C000DF90BF90AF90089590E080E0CBCF80E0B8
:1014D000DECF0895FF920F931F93CF93DF93F82EE3
:1014E000092F162FD72FC42F222349F081E0809394
:1014F0002A010E94141E9093290180932801809153
:101500002A018823A1F080912801909129010E944D
:101510002C1E069760F0EF2DF02FA12FBD2F90E02D
:1015200080E0D0E08C179D0744F010922A01DF91F3
:10153000CF911F910F91FF900895219131912D939B
:101540003D930196EFCFEF92FF920F931F93CF93AE
:10155000DF93EB01E82FD11110C0442321F0F0E01C
:10156000ED51FC4FE4916E2F7E2F8E2FDF91CF91A6
:101570001F910F91FF90EF9008950D2F10E0282FED
:1015800030E0442329F02D513C4FF901249130E003
:10159000F6E0CF9FC0011124EFEFF0E0BF010E9401
:1015A0008C28AB018C2F90E0880F991FA5E5A49F94
:1015B000B001A59F700D1124861B970B982F990FD2
:1015C000980FBF01601B710B629FD001639FB00D2C
:1015D000729FB00D11248B2F9D9FB0011124672F96
:1015E0007727EF01C61BD70BBE01629FE001639F07
:1015F000D00D729FD00D11247F01E91AF108E09EF1
:10160000B001E19E700DF09E700D1124672F7727B9
:10161000E61BF70BE29F8001E39F100DF29F100D78
:101620001124E12F722F4230510599F048F44115F1
:10163000510569F04130510581F0EB2F8D2F07C026
:101640004430510569F080F046305105B1F76E2FF6
:101650008DCFE22F7B2F812FFACFE22F7D2FF7CF77
:10166000EB2F822F712FF3CF7B2F822FED2FEFCF18
:1016700041E00C94A30A0C94380BCF93DF93762FA0
:10168000E901682F842F0E943B0B798368838A834A
:10169000DF91CF9108958091D501982F9E7F39F4E5
:1016A0008091D501817082608093D5010895843046
:1016B000B8F7089588E090E00C94B728CF92DF92B5
:1016C000EF92FF926B017C010E944B0BB701A601C8
:1016D00088E090E0FF90EF90DF90CF900C94D528B9
:1016E000E5EDF1E083E0808311828FEF82838383D5
:1016F000148260817181828193810C945E0B809150
:10170000B50180FF76C08AEC93E09F938F930E948F
:1017100075068091B5010F900F9080FF6AC080918F
:10172000D50181701F928F938DEA93E09F938F93E1
:101730000E9475068091B5010F900F900F900F9049
:1017400080FF57C08091D50186951F928F9382E9C3
:1017500093E09F938F930E9475068091B5010F903F
:101760000F900F900F9080FF44C08091D6011F9280
:101770008F9388E793E09F938F930E9475068091E3
:10178000B5010F900F900F900F9080FF32C08091A5
:10179000D7011F928F938EE593E09F938F930E94C2
:1017A00075068091B5010F900F900F900F9080FFFC
:1017B00020C08091D8011F928F9384E493E09F937F
:1017C0008F930E9475068091B5010F900F900F9036
:1017D0000F9080FF0EC08091D9011F928F9388E2F5
:1017E00093E09F938F930E9475060F900F900F9038
:1017F0000F9008959091D901933018F49F5F9093C2
:10180000D901882351F06091D5017091D601809162
:10181000D7019091D8010C945E0B089581E00C944F
:10182000FA0B9091D901992319F091509093D90115
:10183000882351F06091D5017091D6018091D70134
:101840009091D8010C945E0B089581E00C94110CDA
:1018500021E030E001C0220F8A95EAF79091300133
:10186000922381E009F480E0089570E00C94300F39
:101870006F927F928F929F92AF92BF92CF92DF92A0
:10188000EF92FF920F931F93CF93DF9300D000D07E
:101890000F92CDB7DEB7709001012091D50120FFE6
:1018A00026C0C0902B01D0902C01C114D10491F519
:1018B0008091000133E0839FC0011124672D86527F
:1018C0009E4F0E94350C0F900F900F900F900F902D
:1018D000DF91CF911F910F91FF90EF90DF90CF900C
:1018E000BF90AF909F908F907F906F900895E09100
:1018F000020180910301E817A0F68E2F90E0FC0111
:10190000EE0FFF1FE80FF91FE652FE4F1182108203
:101910001282C7CF20FFCCCFF12CE12C43E0642E04
:101920008E2D0E94280C882309F43CC0F701EE0F8D
:10193000FF1FEC0DFD1DA590B490A114B10409F496
:10194000B7CF45E050E0B501CE0101960E94A62830
:1019500009810F3F39F18A81800F9927991F181645
:10196000190614F481E090E04C01880C991C880D54
:10197000991D9C0126523E4F4901069D800111246C
:1019800006521E4F0815190520F035E0A30EB11CB4
:10199000D8CF98014D816C818B810E943D0B0D5FEA
:1019A0001F4FF0CF8FEFE81AF80A28E0E216F10493
:1019B00009F0B6CF7DCF8091D5018E7F8093D50180
:1019C0006091D5017091D6018091D7019091D80195
:1019D0000E945E0B8091B50180FF0FC08091D50100
:1019E00081701F928F938AEA91E09F938F930E9458
:1019F00075060F900F900F900F902FEF80E792E0F9
:101A0000215080409040E1F700C000000C94380C59
:101A10009091D50190FF14C0E091020190910301D3
:101A2000E91760F42E2F30E0F901EE0FFF1FE20FEF
:101A3000F31FE652FE4F8183608342830C94380C7F
:101A40000895EF92FF920F931F93CF93DF9300D0EF
:101A50000F92CDB7DEB7182F062FF42EE22E80910D
:101A6000D50180FF43C0E82FE695F0E0ED5DFE4F25
:101A7000908190932E018E7F823059F49E012F5FCA
:101A80003F4F812F0E943D0B4B8169818A810E94CB
:101A9000080D1093D6010093D701F092D801EE20E3
:101AA00079F16091D5017091D6018091D701909123
:101AB000D8010E945E0B8091B50180FF17C0809114
:101AC000D8011F928F938091D7011F928F9380919D
:101AD000D6011F928F9385E891E09F938F930E9488
:101AE00075060FB6F894DEBF0FBECDBF0F900F90F6
:101AF0000F90DF91CF911F910F91FF90EF9008957C
:101B00008091B50180FFF2CF1F92FF921F920F9339
:101B10001F921F938EE591E0E0CFE5EDF1E091811A
:101B2000282F4381628188E0890F0C94210D81E088
:101B30000C948D0DE5EDF1E09181282F43816281B8
:101B400088EF890F0C94210D81E00C949A0DE5ED3E
:101B5000F1E0628121E1620F08F46FEF282F4381E9
:101B600081810C94210D81E00C94A70DE5EDF1E04D
:101B7000628121E1621B08F460E0282F43818181AA
:101B80000C94210D81E00C94B60DE5EDF1E043815C
:101B900021E1420F08F44FEF282F628181810C94DC
:101BA000210D81E00C94C50DE5EDF1E0438121E1CB
:101BB000421B08F440E0282F628181810C94210DA2
:101BC00081E00C94D40D20E00C94210D8091D5017E
:101BD00080FF35C0817082608093D501662329F132
:101BE0006091D5017091D6018091D7019091D80173
:101BF0000E945E0B8091B50180FF0FC08091D501DE
:101C000086951F928F938EE692E09F938F930E940A
:101C100075060F900F900F900F904091D801609132
:101C2000D7018091D6010C94E30D8091B50180FF1E
:101C3000F4CF1F9281E08F9380E592E0E6CF089584
:101C4000682F81E00C94E60D81E00C94200E682F43
:101C50009091D50196958FEF890F09F481E00C944E
:101C6000E60D81E00C94270E61E00C94E60D809166
:101C7000D50181608093D5018091B50180FF0DC0B1
:101C80001F9281E08F9382EE91E09F938F930E9449
:101C900075060F900F900F900F908091D50186954B
:101CA0000C94340E8091B50180FF10C08091D50155
:101CB000809581701F928F9389E192E09F938F931B
:101CC0000E9475060F900F900F900F908091D50194
:101CD00080FD0C94DB0C0C94370E60E00C94E60D48
:101CE00080912D0181115EC08091B50180FF14C0EB
:101CF00081E193E09F938F930E9475068091B501D7
:101D00000F900F9080FF08C08BEF92E09F938F930E
:101D10000E9475060F900F900E94911C811110C0B7
:101D20008091B50180FF08C083ED92E09F938F936F
:101D30000E9475060F900F900E94351D0E94700B37
:101D40000E945A0B6093D5017093D6018093D701FE
:101D50009093D8016E7FC1F48091B50180FF08C0D7
:101D60008AE892E09F938F930E9475060F900F90E0
:101D70000E94700B0E945A0B6093D5017093D6019C
:101D80008093D7019093D8010E944B0B0E947F0B48
:101D90008091D50180FF03C086950E946D0E81E081
:101DA00080932D010895FA01811101C0FB0109946E
:101DB0000F931F93CF938C01FB01C281CC2309F4B5
:101DC0004DC00E94B81B8272F801E35CFC45E4310F
:101DD000F10538F4E750F74D0C94A0280E94520EFC
:101DE000C0E08C2FCF911F910F91089541E35EE0E9
:101DF00064E27EE00E94D30EF3CF44E25EE061E352
:101E00007EE0F8CF44EA5DE067E97DE0F3CF47E9A3
:101E10005DE064EA7DE0EECF42EC5DE063EB7DE007
:101E2000E9CF43EB5DE062EC7DE0E4CF40EE5DE0C6
:101E300061ED7DE0DFCF41ED5DE060EE7DE0DACF8A
:101E400045E25CE06EE07CE0D5CF4EE05CE065E230
:101E50007CE0D0CF81E00E94340EC2CFC1E0C1CF80
:101E6000529A4BB14B7F5BB15460EFB7F8949B0132
:101E7000220F331F260F371F280F391F2817390746
:101E800041F4EFBF8FE594E00197F1F700C0000047
:101E90000895DC016D91CD0178E05BB9000000C0D0
:101EA00067FF4BB9660F000000C000C000C04BB90F
:101EB00000C07A9591F7E2CF0F931F93CF93DF93F2
:101EC000C42FD22FFC0182818823C9F040933301B3
:101ED0000E94141E909332018093310180E28C0F96
:101EE000883008F050C0C77081E001C0880FCA95E3
:101EF000EAF7DF91CF911F910F910C94F01310919D
:101F00003301141335C080913101909132010E9448
:101F10002C1E883C910560F5C0E2CD0F1D17B9F06D
:101F200080E2810F883040F4177081E001C0880F93
:101F30001A95EAF70E94F713C83048F481E09D2F04
:101F4000977001C0880F9A95EAF70E94F013802FCE
:101F50000E94DD13C830B8F4D77081E001C0880F4B
:101F6000DA95EAF7DF91CF911F910F910C94F71357
:101F700080E28C0F883038F4C77081E001C0880F90
:101F8000CA95EAF7EFCFDF91CF911F910F91089596
:101F90000F939C01CB01243F4CE5340759F1A8F481
:101FA000293DFCE53F0701F12A3D4CE53407D1F11D
:101FB000283D3C4591F406E221EE41EE68ED7CE5DA
:101FC0000E945C0F80E00F910895263FFCE53F07DB
:101FD000E9F0B0F0273F3C45F9F0FC01828188230D
:101FE00039F110923301EFCF07E225EE45EE69EDAE
:101FF0007CE5E6CF06E221EE40EE64EF7CE5E0CF43
:1020000007E225EE44EE65EF7CE5DACF06E221EE4D
:1020100042EE66EF7CE5D4CF07E225EE46EE67EFB1
:102020007CE5CECF08E221E045EE6AED7CE5C8CF45
:1020300081E0C9CFCF93DF93EC01FB01828188233C
:1020400009F419C1C230FCE5DF07C0F1C6319CE5D7
:10205000D90730F09E012B5F3C452930310570F5E2
:102060000E94A41C9093E2018093E101C031ECE551
:10207000DE0709F4CFC008F05BC0C8308CE5D80794
:1020800009F4B6C088F5C430ECE5DE0709F4A8C051
:10209000C0F4C2308CE5D80709F49CC08091E101FE
:1020A0008260C330DC4509F498C08091E1019091D1
:1020B000E2010E94B21C0E94391680E0DF91CF91AC
:1020C00008958091E1018061C630ECE5DE0709F4F6
:1020D00084C08091E1018860C730DC4508F47DC090
:1020E0008091E101806279C0CC308CE5D80709F499
:1020F00089C070F48091E1018C60CA30ECE5DE07A4
:1021000009F46BC008F478C08091E1018E7F65C04E
:10211000CE308CE5D80709F479C08091E1018B7F3E
:10212000CF30DC4508F459C08091E1018F7E55C065
:10213000CC3FECE5DE0709F457C030F5C3318CE540
:10214000D80709F46FC078F4C131ECE5DE0709F473
:1021500065C0C231DC4509F0A8CF0E9439168091D4
:10216000E1018F773AC0C5318CE5D80709F462C028
:1021700008F476C08091E2018160CB3FDC4509F034
:1021800094CF8093E20191CFC115FDE5DF0709F4FB
:102190004DC088F48091E2018D7FCE3F9CE5D90748
:1021A00081F38091E2018E7FCF3FDC4550F3809137
:1021B000E2018360E6CFC230FDE5DF0709F459C0D4
:1021C00008F444C080E0C330DD4509F06ECF0E94C2
:1021D000371D6BCF8091E10181608093E10165CF74
:1021E0008091E1018460F9CF8091E2018260C9CFE2
:1021F0008091E1018064F1CF0E9439168091E10164
:102200008068EBCF8091E1018D7FE7CF8091E10184
:10221000877FE3CF8091E1018F7DDFCF8091E10166
:102220008F7BDBCF8091E101837FD7CF8091E2016B
:102230008C7FA7CF8091E10182FB992790F921E063
:10224000922790FB82F990FB83F9C7CF8091E2013E
:10225000982F909591708E7F892B90FB81F991CF6B
:102260000E9439169091E101892F97FB87F98058D8
:10227000B4CF81E0ACCF81E021CFCF93DF93EB01EE
:1022800086319C4511F50E94B81B9A81992399F0DB
:102290008A7A91E009F490E090933401811109C0A9
:1022A00089E20E94931B0E94041C80E0DF91CF9181
:1022B000089585E3F6CF80913401811104C089E24D
:1022C0000E949A1BF0CF85E3FBCF81E0EFCF909384
:1022D0003A01809339010895E0913901F0913A0172
:1022E000309721F00190F081E02D099480E008956D
:1022F000EF92FF920F931F93CF93DF938C01E091A6
:102300003901F0913A013097C1F10280F381E02D5B
:1023100009958091B50182FF30C080FF04C08BEE2B
:1023200094E00E94DC05D0E0C0E085EEE82E84E079
:10233000F82E8091B50180FF0EC0F801EC0FFD1F53
:1023400080811F928F93FF92EF920E9475060F90EB
:102350000F900F900F902196C830D10551F78091C2
:10236000B50180FF0AC083EE94E0DF91CF911F9109
:102370000F91FF90EF900C94DC05DF91CF911F91AE
:102380000F91FF90EF90089520913701309138011F
:102390002817390771F09093380180933701E09145
:1023A0003901F0913A01309721F00680F781E02D54
:1023B0000994089520913501309136012817390785
:1023C00071F09093360180933501E0913901F091DD
:1023D0003A01309721F00084F185E02D09940895A9
:1023E00085B7806885BF85B7806885BF08950895E3
:1023F00008950C94F71108950C94FB110E94F011AC
:102400000E94F8110C94F91181E008950C940412C3
:10241000089508950E940B1E0E94AD090E94831E1C
:102420000E94700E0C94FC11CF93C82F8091B501BF
:1024300082FF1EC080FF1CC084E095E00E94DC0586
:102440008091B50180FF14C01F92CF938FEF94E06D
:102450009F938F930E9475068091B5010F900F9006
:102460000F900F9080FF04C08DEF94E00E94DC0578
:102470008C2FCF910C9447079F92AF92BF92CF922F
:10248000DF92EF92FF920F931F93CF93DF93CDB71D
:10249000DEB72A970FB6F894DEBF0FBECDBF0E94FD
:1024A00008120E9409120E94EB090E94061288235A
:1024B00009F46DC05CE3A52E51E0B52E10E000E0FC
:1024C000902E802F0E9442096C01F501E190F1905D
:1024D0005F01E816F90609F454C08091B50181FD49
:1024E0000E944B0997012C253D2580E0EE24E394C2
:1024F000F12CA9014E215F21452BE9F18E839F82AA
:10250000CE20DF2081E0CD2809F480E088870E947A
:10251000141E8160782F9A8789874E815F81688534
:102520008A850E94EA12000F111FF801E45CFE4F39
:1025300080819181E826F926F182E0820E946C1167
:1025400090913B018917A1F10E946C1180933B018E
:102550002A960FB6F894DEBF0FBECDBFDF91CF91A4
:102560001F910F91FF90EF90DF90CF90BF90AF90B1
:102570009F900C9414128F5FEE0CFF1C8D3009F0AD
:10258000B8CF0F5F1F4F0430110509F099CF8FEFBF
:1025900089838A831B820E94141E8160782F9D8309
:1025A0008C8349815A816B818D810E94EA12C6CF4A
:1025B0002A960FB6F894DEBF0FBECDBFDF91CF9144
:1025C0001F910F91FF90EF90DF90CF90BF90AF9051
:1025D0009F900895CF93DF93CDB7DEB72B970FB6BB
:1025E000F894DEBF0FBECDBF4F83588769877A87C7
:1025F0008B871E821D8285E0FE013796DE011196D3
:1026000001900D928A95E1F749815A816B817C8115
:102610008D819E812B960FB6F894DEBF0FBECDBF85
:10262000DF91CF910C94AF18FC01808191810C94C3
:10263000651BCF93C82F882309F46EC08238C1F47C
:102640000E946C1181FD68C089E30E94931B0E9467
:10265000041C2FEF81EE94E0215080409040E1F780
:1026600000C0000089E30E949A1BCF910C94041CC7
:102670008338A1F40E946C1180FD4EC083E50E9456
:10268000931B0E94041C2FEF81EE94E021508040A8
:102690009040E1F700C0000083E5E5CF8438A1F465
:1026A0000E946C1182FD38C087E40E94931B0E9437
:1026B000041C2FEF81EE94E0215080409040E1F720
:1026C00000C0000087E4CFCF8CEF8C0F813AB8F4C4
:1026D0008C2F0E94272181111FC06C2F8091050132
:1026E000909106010E944E1D882329F08C2F0E9494
:1026F0009A1B0E94041C8C2F0E94931BB6CF80E271
:102700008C0F883048F4C77081E001C0880FCA95EB
:10271000EAF70E94BB1BA9CFCF910895882309F443
:102720004BC0823871F40E946C1181FF45C089E36F
:102730000E94931B0E94041C89E30E949A1B0C9424
:10274000041C833859F40E946C1180FF35C083E566
:102750000E94931B0E94041C83E5EFCF843859F438
:102760000E946C1182FF28C087E40E94931B0E9484
:10277000041C87E4E2CF9CEF980F913AF0F290E2CC
:10278000980F983050F4877091E001C0990F8A95A6
:10279000EAF7892F0E94C11BD2CF9BE5980F933097
:1027A00020F490E080E00C94C411885A873120F422
:1027B00090E080E00C94DA110895CF93C82F0E9426
:1027C0001913C93349F42FEF87EE93E0215080406D
:1027D0009040E1F700C000008C2FCF910C948E1335
:1027E000882321F00E94BB1B0C94041C08958823AD
:1027F00021F00E94C11B0C94041C0895BF92CF923B
:10280000DF92EF92FF920F931F93CF93DF936C01B0
:10281000D62FC72FFC01158112951F70028101115F
:102820000E94D81B0E94B11BE82E882391F0002340
:10283000D1F08C2F807F803421F080E28D0F8830A2
:1028400090F082E00E944F1C0E94B11B91E0E82EA4
:10285000E926BC2EB2949FE0B922EB2DF0E0E35FB5
:10286000F64D0C94A028E12CF4CF1C2F1F70C07FD4
:1028700011F01295107F0023A9F0112359F080E286
:102880008D0F883010F0D11109C0812F0E94BB1B21
:102890000E94041C8D2F0E94191314C0812F0E94C6
:1028A000CB1BF6CF8D2F0E948E13112359F080E29F
:1028B0008D0F883010F0D1112CC0812F0E94C11BC8
:1028C0000E94041C2B2D2850330B2430310520F49A
:1028D0000E946C110E944707EE2009F477C10E9404
:1028E000AD1B80FD73C1F60112820E94A71B0E94DE
:1028F000331AC6010E9407160E94A71BDF91CF91D1
:102900001F910F91FF90EF90DF90CF90BF900C94AC
:10291000541A812F0E94D11BD3CFFC2FFF70FF2EA2
:10292000C07FC03219F0F29480EFF822DD2369F005
:10293000D13049F1002391F1112351F1F601858144
:1029400080FFA8CF8F70858323C0002381F01111F1
:1029500006C00E94EB1B8F290E94F013B3CF1130E9
:10296000C1F70E94EB1B8F290E94F11BABCF111105
:1029700006C00E94FA1B8F2D0E94F713A3CF1130BF
:1029800009F4A0CFF6CF002329F0163008F09ACF33
:102990008F2DE2CF153008F095CFEDCF112359F3ED
:1029A000D93349F4FFEF27EE33E0F15020403040B7
:1029B000E1F700C000008D2F0E948E1383CF8C2F73
:1029C000837009F041C001117DCF4D2F429546958E
:1029D0004770440F440F0D2F0F7010E030E020E0DF
:1029E000042E04C0000F111F221F331F0A94D2F7B8
:1029F00060E070E0CB01D4FF0FC06FE070E080E0DA
:102A000090E004C0660F771F881F991F4A95D2F780
:102A10006095709580959095C695C695C370602B0E
:102A2000712B822B932BC23049F058F4C13019F02E
:102A30000E94E51947CF0E94D31944CF0E94F7198D
:102A400041CF0E94D1193ECF8695002311F08C2FE3
:102A50008170882309F436CF4D2F429546954770F3
:102A6000440F440F0D2F0F7010E030E020E0042ED3
:102A700004C0000F111F221F331F0A94D2F760E019
:102A800070E0CB01D4FF0FC06FE070E080E090E019
:102A900004C0660F771F881F991F4A95D2F760956B
:102AA000709580959095C695C695C370602B712BD7
:102AB000822B932BC23049F058F4C13019F00E9498
:102AC000AA1A00CF0E94981AFDCE0E94BC1AFACE14
:102AD0000E940D1AF7CECF70002329F08C2F0E9490
:102AE000331A8D2F39CF8D2F0E94F7138C2F0E9410
:102AF000541AE8CED23F89F160F4D03FC9F0D13FFB
:102B000029F1002309F442C01111C4CE8C2F8F711A
:102B100021C0D33F39F1D43FA1F7002369F1CF7130
:102B20008C2F0E94331A63E08C2F0E943A1CCACE6D
:102B3000002341F0153008F0C5CE8C2F8F710E9414
:102B4000771AC0CE163008F0BDCEF7CF8C2F8F711C
:102B5000002369F20E94331AB5CE8C2F8F710023A7
:102B6000C9F3C5CF002329F08C2F8F710E941E1A44
:102B7000A9CE0E94191AA6CE81E00E944F1C1230E5
:102B800008F4A0CE82E00E944F1C9CCE112359F085
:102B9000D93309F010CF8FEF97EEE3E081509040EA
:102BA000E040E1F706CF8C2F8F71A1CF4C2F4F70F3
:102BB0006D2FC6010E944F070E94491983CE4C2FEA
:102BC0004F706D2FC6010E9452077CCEDF91CF91CE
:102BD0001F910F91FF90EF90DF90CF90BF900895DD
:102BE0000F931F93CF93DF93EC01688179818A81E2
:102BF0000E946F1B8C010E94CE1A0E94D019B8014E
:102C0000CE01DF91CF911F910F910C94FE13CF93C2
:102C1000DF93EC018B819C81892B29F0888199813C
:102C200089238F3F59F4DF91CF910895CE010E94FF
:102C3000F015CE01DF91CF910C94C306CE010E9416
:102C4000E8068111F3CF0E94B11B882361F38A81CA
:102C5000882349F382E0DF91CF910C944F1C0E94AE
:102C6000D81B0E94E81B0C94041C0E94A11B0C940E
:102C70002F160E94C81B0C943516E92FE295EF70B1
:102C8000E250EE3070F4F0E0E35EF64D0C94A028D4
:102C9000803F19F020F4883E20F481E00895843FBD
:102CA000E1F380E00895883EC0F3813FD1F7F5CF8E
:102CB00093FB882780F908950E94651B0C943D16AC
:102CC000CF93DF9300D000D00F92CDB7DEB70F9037
:102CD0000F900F900F900F90DF91CF910895CF93A9
:102CE000DF9300D000D000D0CDB7DEB726960FB668
:102CF000F894DEBF0FBECDBFDF91CF9108951F9333
:102D0000CF93DF93C091450116E0809146018C136B
:102D100004C0DF91CF911F910895D0E01C9FF00176
:102D20001D9FF00D1124E95BFE4F408151816281AE
:102D30007381848195810E946F162196C770E5CFBB
:102D400040917701509178016091790170917A01F9
:102D500080917B0190917C010C946F161F93CF930F
:102D6000DF9380917C01807FA9F480917901882391
:102D700089F080914501C091460160917701709181
:102D80007801A0917A01B0917B01D62FD72316E06C
:102D9000C81304C0DF91CF911F91089590E0109760
:102DA00011F0DF3F19F401968770F2CF189F900160
:102DB000199F300D1124F901E95BFE4F4181471342
:102DC000F2CF40814613EFCF42814111ECCF4381D6
:102DD00054814A1B5B0B483C510528F780917C01CC
:102DE0008F70806180937C01F901E45BFE4F8081EC
:102DF0008F708061808387E791E00E940716DF91E2
:102E0000CF911F910C947F16AF92BF92CF92DF9219
:102E1000EF92FF920F931F93CF93DF93CDB7DEB75F
:102E200061970FB6F894DEBF0FBECDBF8C0185E071
:102E3000F801DE011D9601900D928A95E1F7F801E7
:102E400040815181E28087E7C82E81E0D82E6091D1
:102E50007A0170917B016115710509F461C190914E
:102E6000770120917801892F82238F3F09F458C17F
:102E7000A380B480F0907901F501E61BF70BFF20E9
:102E800009F4FCC080917C01382F307FE83CF105CB
:102E900008F0B2C0311179C0FE2C251323C0941361
:102EA00021C0E1101FC08F70806180937C010E945F
:102EB000A016C6010E94071680917C01F801858347
:102EC0008F2D61960FB6F894DEBF0FBECDBFDF9198
:102ED000CF911F910F91FF90EF90DF90CF90BF9017
:102EE000AF900895AB2829F0842F85238F3F09F0F8
:102EF00033C180E0F82FF170DF2E80FF3CC080915D
:102F000045012091460136E0821315C04D875E874A
:102F10008D859E850E94651B292F22952F7022305A
:102F2000F0F0243018F59F70F1F0F8019581907F52
:102F3000D1F4D12C1EC090E0389FF001399FF00DE4
:102F40001124E95BFE4F6181651306C06081641343
:102F500003C062816E110FC001968770D5CF9F703C
:102F600011F0882331F3805E883018F3C8010E9485
:102F70000716FD2CA5CFEE2009F4A2CF80917C018D
:102F8000816080937C01F12C9BCF251306C09413A4
:102F900004C0F801EE2009F48DC04D875E878D8551
:102FA0009E850E945C16882319F1EE2009F180911C
:102FB0007C01803270F02091770130917801388760
:102FC0002F831986BB86AA868C87CE0107960E941E
:102FD000071686E0F801A7E7B1E001900D928A9507
:102FE000E1F70E94AE160E94A016FF24F39468CF6A
:102FF000C8010E940716F9CF311113C07A2DB98A82
:10300000A88A6E2D89890E94601687E791E00E9448
:10301000071686E0F60111928A95E9F70E94A0163C
:10302000B2CF25130FC094130DC0E1100BC0F801EF
:103030008583C8010E94071686E0F60111928A95E1
:10304000E9F73ECF4D875E878D859E850E945C1691
:10305000882371F2EE2061F280917C01803208F4C5
:10306000B8CF20917701309178013A8329831B8270
:10307000BD82AC828E83CE010196A9CFE83CF105DA
:1030800008F041C0FE2CEE2009F4B2CF25132AC06F
:10309000941328C080917C0180FD1BC0982F907FE5
:1030A000C1F0F8018583903F31F0982F907F905FB9
:1030B0008F70892B8583C8010E94071686E0F8016E
:1030C000A7E7B1E001900D928A95E1F70E94A01662
:1030D000F7CE86E0F801A7E7B1E001900D928A955E
:1030E000E1F7EECE4D875E878D859E850E945C164A
:1030F00081116FCF80917C01816080937C01C80138
:103100000E940716DDCE7A2DB98AA88A6E2D89898C
:103110000E94601686E0F60111928A95E9F7D6CFF3
:10312000EE2009F465CF4D875E878D859E850E94D0
:103130005C16F82E882309F45BCF86E0F801A7E738
:10314000B1E001900D928A95E1F787E791E00E9446
:1031500014130E94AE16BACF81E08E25CBCE1F93FA
:10316000CF93DF93CDB7DEB72C970FB6F894DEBFC1
:103170000FBECDBF4F83588769877A878B879C871F
:10318000CE0107960E940417882369F08A859B85E3
:10319000892B39F04F815885842F85238F3F09F083
:1031A00071C016E05FC086E0FE013796DE01119621
:1031B00001900D928A95E1F78A859B85892B89F389
:1031C0008F81988589238F3F61F32091460130E0FC
:1031D000C901019687709927409145014817190642
:1031E00071F40E943916109246011092450186E052
:1031F000E7E7F1E0DF011D928A95E9F7D2CF96E08B
:10320000929FD001939FB00D1124A95BBE4FFE0188
:10321000319601900D929A95E1F7809346010E94B4
:103220007F16BFCF819FC0011124895B9E4F0E94F2
:1032300004178823E9F0E09145011E9FF001112455
:10324000E95BFE4F40815181628173818481958168
:103250000E946F168091450190E001968770992732
:103260008093450180914501909146018913DACF01
:103270002C960FB6F894DEBF0FBECDBFDF91CF9175
:103280001F91089569857A858B859C850E946F16AC
:1032900088CFEF92FF920F931F93CF93DF938C0110
:1032A000892B81F0F12CEE24E394E8012196F801BA
:1032B0008491843770F4843008F05FC08130B1F0BD
:1032C0008230A1F1DF91CF911F910F91FF90EF908C
:1032D0000895853709F44CC008F43DC09CE7980F69
:1032E000903780F78F770E948E1349C00E5F1F4F73
:1032F000FE01849190E2980F983060F48770FE2D63
:1033000001C0FF0F8A95EAF78F2F0E94DB1B0E94F6
:10331000041C02C00E9419138F2D815030F2EFE976
:10332000FFE03197F1F700C00000F7CF0E5F1F4FAD
:10333000FE01849190E2980F983050F48770FE2D32
:1033400001C0FF0F8A95EAF78F2F0E94E11BDFCFA4
:103350000E948E13E1CF0E5F1F4FFE01C491C1503A
:10336000D8F28FE99FE00197F1F700C00000F7CF96
:103370000E5F1F4FFE01F490CFCF0E9419138E01F4
:10338000CBCF08950C94C1190E94C2196093A40177
:103390007093A5018093A6019093A7010C942F161A
:1033A00008950C94C4190F931F930091A4011091D8
:1033B000A5012091A6013091A701602B712B822BD2
:1033C000932B1F910F910C94C4190F931F9300918D
:1033D000A4011091A5012091A6013091A7016023BD
:1033E0007123822393231F910F910C94C4190F937F
:1033F0001F930091A4011091A5012091A601309185
:10340000A70160277127822793271F910F910C94A2
:10341000C4190C94C1190C94091A0E940B1A6093D8
:10342000A0017093A1018093A2019093A3010C9439
:103430002F1660E070E0CB010C940D1A0F931F93D0
:1034400041E050E060E070E08A019B0104C0000FA1
:10345000111F221F331F8A95D2F7C901B8011F918E
:103460000F910C940D1A0F931F9341E050E060E010
:1034700070E004C0440F551F661F771F8A95D2F76E
:103480008091A0019091A101A091A201B091A3010E
:103490008A019B01082B192B2A2B3B2BC901B80150
:1034A0001F910F910C940D1A0F931F9341E050E060
:1034B00060E070E004C0440F551F661F771F8A95B7
:1034C000D2F7CB01BA0160957095809590950091E7
:1034D000A0011091A1012091A2013091A3016023CC
:1034E0007123822393231F910F910C940D1A0F9334
:1034F0001F9341E050E060E070E004C0440F551FAE
:10350000661F771F8A95D2F78091A0019091A10143
:10351000A091A201B091A3018A019B01082719275C
:103520002A273B27C901B8011F910F910C940D1A4E
:103530000F931F930091A0011091A1012091A2016E
:103540003091A301602B712B822B932B1F910F9134
:103550000C940D1A0F931F930091A0011091A101DB
:103560002091A2013091A301602371238223932330
:103570001F910F910C940D1A0F931F930091A001AE
:103580001091A1012091A2013091A3016027712720
:10359000822793271F910F910C940D1A08952DE007
:1035A000929F800D1124982F977041E001C0440F25
:1035B0009A95EAF786958695869595E0899FF0011C
:1035C0001124E358FE4F90E080E070E05191DF015C
:1035D00011979B01082E02C0369527950A94E2F7B1
:1035E000217021952527242325272C9301968530AA
:1035F000910561F708952DE0929F800D1124982F79
:10360000977086958695869525E0829FF001112416
:10361000E358FE4F50E040E080E0219130E0092E79
:1036200002C0369527950A94E2F721703327042EBD
:1036300001C0220F0A94EAF7822B4F5F5F4F45309B
:10364000510559F70895BF92CF92DF92EF92FF9202
:103650000F931F93CF93DF938C01C090A001D09064
:10366000A101E090A201F090A3018091A4019091AA
:10367000A501A091A601B091A701C82AD92AEA2ADA
:10368000FB2ACFE1D0E0BC2ED701C6010C2E04C02E
:10369000B695A795979587950A94D2F780FD0EC0A9
:1036A000219788F7B12C8B2DDF91CF911F910F912E
:1036B000FF90EF90DF90CF90BF900895B8018C2FCE
:1036C0000E946F07019761F3EECFCF93DF93EC0178
:1036D0000E94231BBE01DF91CF910C946F071F93B3
:1036E000CF93DF93EB0190914401992331F0CB010B
:1036F000DF91CF911F910C94651B882379F0CB014A
:103700000E94231B182F682FCE010E94CF1ABE01E2
:10371000812FDF91CF911F910C946F07CB010E94F5
:10372000FB1A182FF4CF682F8091050190910601A4
:103730000C94841D682F80910501909106010C94D2
:10374000861D80910501909106010C94881D809141
:10375000A80185958595859508958091A801877024
:1037600008959091A801977081E009F480E0089590
:103770008091B40108959091B401892B8093B40194
:10378000089580959091B40198239093B401089581
:103790001092B40108959091B301892B8093B301E5
:1037A000089580959091B30198239093B301089563
:1037B0001092B30108959091B201892B8093B201C8
:1037C000089580959091B20198239093B201089545
:1037D0001092B20108958091A901089508950C9462
:1037E000EE1B9091A901981721F08093A9010C94E8
:1037F000EF1B08958091A901882329F01092A90157
:1038000080E00C94EF1B0895E0910501F091060112
:103810008091B4018083E0910501F09106018081DF
:103820009091B301892B8083E0910501F09106010D
:1038300080819091B201892B80839091A901992375
:1038400081F0E0910501F09106018081892B808350
:1038500080910501909106010E943C1D81110E94FA
:10386000FA1B80910501909106010C94781108953E
:103870000C94371C98E0899F90011124622B60936F
:10388000A8010E94331A8091A80185958595859598
:103890000C94381C1092A80180E00C94381C909174
:1038A000A801809589238093A801282F277071F49F
:1038B000282F082E000C330B9217130639F085952C
:1038C000859585950E94541A0C944A1C08959093EE
:1038D0002701809326010895829590E09C01220F94
:1038E000331F220F331F2C7C9595879595958795CF
:1038F0008373282B30E0C901880F991F8A7A359588
:1039000027952575822B0895CF93DF93D92F0E9499
:103910006C1CC82F8D2F0E946C1C9C2FDF91CF91A7
:10392000089590E080E00E94BD2821E08C3E9E4FEB
:1039300009F020E0822F089582E090E00C94AF28F7
:1039400083E090E00C94AF28CF9384E090E00E9455
:10395000AF28C82F81E290E00E94AF28982F8C2FCB
:10396000CF910895CF93C92F682F84E090E00E94F3
:10397000C3286C2F81E290E0CF910C94C328AB0157
:10398000BC018FE090E00C94D528AB01BC0183E131
:1039900090E00C94D52860E070E0CB010C94C51C3D
:1039A00060E070E0CB010E94BF1C0C94CB1C6CEE5D
:1039B0007EEF90E080E00E94E12860E082E090E00D
:1039C0000E94C32860E083E090E00E94C328109228
:1039D000A4011092A5011092A6011092A70160E027
:1039E00084E090E00E94C32860E081E290E00E94C1
:1039F000C32860E085E090E00E94C32860E086E094
:103A000090E00E94C3286FEF87E090E00E94C328F7
:103A100040E050E0BA0188E090E00E94D52860E0E4
:103A20008DE090E00E94C32840E050E0BA0188E1B8
:103A300090E00E94D52860E087E190E00E94C328D2
:103A400040E050E0BA018CE190E00E94D52860E0AF
:103A500080E290E00E94C32840E050E0BA0188E193
:103A600090E00E94D5280C94D01C0C94D71C682F91
:103A70008EE090E00C94C3289C012E5F3F4FAC0178
:103A8000485F5F4F80E02417350709F40895F90176
:103A900091919F019923B9F38F5FF5CF662349F088
:103AA000FC01329608962191261729F0E817F907AC
:103AB000D1F780E0089581E008959C01FC013296E1
:103AC0009FEF80E04191461751F09F3F19F441115B
:103AD00001C0982F8F5F8630A9F79F3F09F40895A2
:103AE000290F311D97FD3A95F90162830895FC0174
:103AF000329608962191261303C0DF0111971C927C
:103B0000E817F907B9F708950C945D1D0C94771D1B
:103B1000029626E0FC0111922A95E9F7089508958E
:103B200008950C94901D0E94911D8091E7018430AE
:103B300049F11092B60188E190E020E40FB6F894C4
:103B4000A895809360000FBE2093600080E00E94E3
:103B500047070E94911D83B7817F846083BF83B72D
:103B6000816083BF7894889583B78E7F83BF0FB6BB
:103B7000F894A8958091600088618093600010920D
:103B800060000FBE08950895CF930E948F1D0E947C
:103B9000EB090E94C31DC0E08C2F0E944209892BB3
:103BA00031F4CF5FC430C1F780E0CF91089581E058
:103BB000FCCF08950C94D91D0E9439160E946C11F7
:103BC0000E9447070C94DA1D1F921FB61F92112402
:103BD0008F939F93AF93BF938091B601811113C0D0
:103BE0008091DD019091DE01A091DF01B091E001B3
:103BF0004196A11DB11D8093DD019093DE01A0933C
:103C0000DF01B093E001BF91AF919F918F911F9021
:103C10001FBE1F90189582E084BD93E095BD9AEF7A
:103C200097BD80936E0008952FB7F8948091DD01C1
:103C30009091DE01A091DF01B091E0012FBF0895C6
:103C40002FB7F8946091DD017091DE018091DF0162
:103C50009091E0012FBF08959C014FB7F894809197
:103C6000DD019091DE01A091DF01B091E0014FBF35
:103C7000821B930B089578941F921FB61F921124F4
:103C80008F939F93AF93BF938091DD019091DE015D
:103C9000A091DF01B091E0010196A11DB11D8093BB
:103CA000DD019093DE01A093DF01B093E001BF91AD
:103CB000AF919F918F911F901FBE1F90189581E02B
:103CC0008093E00080E28093D8001092C9008FE1D9
:103CD0009EE40197F1F700C0000087E090EBDC0163
:103CE0008093F0019093F101A093F201B093F3015E
:103CF00088E19CE00FB6F894A895809360000FBE11
:103D000090936000FFCF0E94911C811102C00E941D
:103D1000351D0E949C1C8093B5010E94A41C9093A9
:103D2000E2018093E1010E94A01C682F70E090E006
:103D300080E00E94D1196091A0017091A101809151
:103D4000A2019091A3010C940B1ACF93C82F1F923C
:103D50008F938DE195E09F938F930E94750661E0AC
:103D600070E080E090E004C0660F771F881F991F05
:103D7000CA95D2F70E94D1190F900F900F900F9013
:103D8000CF910C943916CF93DF938B3109F4FAC19C
:103D900008F09CC18B3009F4B8C108F06AC18630C4
:103DA00009F4C6C148F4853009F49EC183E699E060
:103DB0000E94DC0580E0CCC1873009F4CCC188309A
:103DC000A9F782E09AE00E94DC0583E599E00E9471
:103DD000DC050E94A01C1F928F9380E599E09F93C1
:103DE0008F930E9475068EE499E00E94DC050E9484
:103DF0009C1CC82F8BE399E00E94DC051F92CF9397
:103E000086E399E09F938F930E94750684E399E07F
:103E10000E94DC058AE299E00E94DC058C2F81700B
:103E20001F928F9387E299E09F938F930E9475066C
:103E300085E299E00E94DC058BE199E00E94DC05B7
:103E4000C1FB882780F91F928F9388E199E09F93A7
:103E50008F930E94750686E199E00E94DC058AE056
:103E600099E00E94DC05C2FB882780F91F928F939E
:103E700087E099E09F938F930E94750685E099E013
:103E80000E94DC058CEF98E00E94DC05C3FBCC2788
:103E9000C0F91F92CF9389EF98E09F938F930E9470
:103EA000750687EF98E00E94DC050E94A41CEC01D7
:103EB00083EE98E00E94DC05DF93CF938EED98E0CF
:103EC0009F938F930E9475068CED98E00E94DC050D
:103ED00083EC98E00E94DC058C2F81701F928F93F9
:103EE00080EC98E09F938F930E9475068DB79EB7E4
:103EF00080960FB6F8949EBF0FBE8DBF8EEB98E0F4
:103F00000E94DC0587EA98E00E94DC05C1FB882757
:103F100080F91F928F9384EA98E09F938F930E9479
:103F2000750682EA98E00E94DC0580E998E00E942C
:103F3000DC058D2F81701F928F938DE898E09F9301
:103F40008F930E9475068BE898E00E94DC0589E754
:103F500098E00E94DC05D695D1701F92DF9386E72A
:103F600098E09F938F930E94750684E798E00E94E3
:103F7000DC0582E698E00E94DC05C2FB882780F918
:103F80001F928F938FE598E09F938F930E94750601
:103F90008DE598E00E94DC058BE498E00E94DC054A
:103FA000C3FB882780F91F928F9388E498E09F9342
:103FB0008F930E94750686E498E00E94DC058CE3EE
:103FC00098E00E94DC05C4FB882780F91F928F933C
:103FD00089E398E09F938F930E94750687E398E0AA
:103FE0000E94DC0585E298E00E94DC05C5FB88277D
:103FF00080F91F928F9382E298E09F938F930E94A3
:10400000750680E298E00E94DC0584E098E00E945A
:10401000DC05C6FB882780F91F928F9381E098E02A
:104020009F938F930E9475068DB79EB780960FB6AB
:10403000F8949EBF0FBE8DBF8FEF97E00E94DC0506
:1040400087EF97E00E94DC05C7FBCC27C0F91F92E1
:10405000CF9384EF97E09F938F930E94750682EF32
:1040600097E00E94DC050F900F900F900F9081E079
:104070006FC0803109F49EC080F48E3009F096CE76
:104080009091B501892F8B7F92FF84608093B50159
:1040900082FF8DC08EE899E081C0863109F49AC014
:1040A000893109F083CE85E296E00E94DC0581EF3C
:1040B00095E00E94DC058AED95E00E94DC0586EB28
:1040C00095E00E94DC058BE895E021C08A3249F139
:1040D00090F4873211F128F48E3108F467CE8D51B7
:1040E0001DC0893209F062CE81ED99E00E94DC05A5
:1040F0000E94D906BCCF833468F48A3308F0A1C08B
:10410000853359F0883309F051CE8FE496E00E9450
:10411000DC05ADCF833409F049CE80E00E94A51EB6
:10412000A6CF81EF99E00E94DC050E94351D9FCF4C
:104130008091B501807F8093B50184E396E00E9471
:10414000DC058DEE99E00E94DC0581E08093B701EB
:10415000DF91CF9108959091B501892F8E7F90FFC7
:1041600081608093B50180FF03C085EC99E0CFCFDB
:1041700088EB99E00E94DC058091B501817F8093F6
:10418000B50175CF9091B501892F8D7F91FF826028
:104190008093B50181FF08C08BEA99E00E94DC059D
:1041A0008091B5018160EBCF8DE999E0B0CF8EE7CA
:1041B00099E0ADCF9091B501892F877F93FF8860FB
:1041C0008093B50183FF03C082E799E0E7CF85E6DE
:1041D00099E09DCF8DE795E00E94DC050E946C116F
:1041E0001F928F9383E695E09F938F930E947506AD
:1041F000809111011F928F938CE495E09F938F9390
:104200000E9475068091C4011F928F9389E395E007
:104210009F938F930E9475060E94201E9F938F93F9
:104220007F936F9382E295E09F938F930E94750630
:104230008DB79EB742960FB6F8949EBF0FBE8DBF46
:1042400016CF89536BCF80E008950C942321CF9330
:10425000C82F8091B701882331F0813099F01092F6
:10426000B70180E00DC00E94B81B8232D1F78C2FBD
:104270000E942321811119C08C2F0E94C31E8170BE
:10428000CF9108950E94B81B823289F38C2F0E942F
:104290002521811119C0C431C9F050F4CB3061F02F
:1042A00087E195E00E94DC0513C081E090E0E7CF54
:1042B000C93261F0C833A1F784E396E00E94DC05BF
:1042C00089E195E00E94DC0581E0D9CF1092B70129
:1042D00080E0D5CF8091C3010895089508959FB7D8
:1042E000F8941092BA019FBF9091E701943009F0C1
:1042F00048C02091E9002F703091EC00932F91700D
:1043000030FD90E8922B22E02093E9002091EB0011
:1043100020FF34C02091EE0027FF30C02091B8016B
:10432000222321F02091E80025FF28C01092B80137
:1043300026E03091E80035FF14C08093F1008091B1
:10434000E80085FD27C08091E80080FFFCCF8091C8
:10435000E8008E778093E8009F709093E90080E0FA
:1043600008953091E701343049F43091EB0035FD88
:1043700005C0215041F481E08093B8019F70909373
:10438000E9008FEF0895EFE9FFE03197F1F700C002
:104390000000CFCF8FB7F89421E02093BA018FBFF0
:1043A000DBCFCF93DF93EC0181E08093E9008FEFC7
:1043B0009091E800815095FD06C095ED9A95F1F732
:1043C00000008111F5CF8091E80085FF14C050E016
:1043D00040E068E070E0CE010E94F0238091E800A8
:1043E0008E778093E80088E0FE01ABEBB1E00190AE
:1043F0000D928A95E1F7DF91CF910895089582E3B8
:104400009AE00E94DC058091E601811109C00E94BA
:1044100080250E94DD258091E20084608093E20087
:1044200008958EE29AE00E94DC051092E60108955C
:104430008AE29AE00C94DC0586E29AE00C94DC05B2
:1044400082E29AE00E94DC050C94DC1D2091B90107
:104450002F5F822F62E30E948028992319F0209316
:10446000B90108951092B9018091BA018823F1F041
:104470008091E7018430C1F49091E9009F70209110
:10448000EC00822F817020FD80E8892B92E09093D0
:10449000E9009091EB0090FF04C09091EE0097FD31
:1044A00008C08F708093E9001092BA0108951092AD
:1044B000F1009091E80095FDFACF9091E80090FF0F
:1044C000F0CF9091E8009E779093E800EACF42E029
:1044D00061EC81E00E94FC2442E261EC82E00C94F9
:1044E000FC248091E901833009F45FC030F481300D
:1044F000C1F1823009F49BC008958A3009F487C065
:104500008B3009F46DC0893009F04EC08091E8010C
:10451000813209F049C08091EC019091ED01892B25
:1045200009F042C08091E800877F8093E800809185
:10453000E80082FF35C09091F3008091F20002976D
:1045400029F48091F1008B7F813021F48091F1007A
:104550008093C3018091E8008B778093E8000C94EE
:1045600030258091E801813AF9F48091E800877F55
:104570008093E8008091EC019091ED01892B61F42A
:1045800068E08BEB91E070E00E943F248091E800AE
:104590008B778093E800089560E090E080E0F3CFAF
:1045A0008091E7018111C3CF08958091E801813A9C
:1045B000D9F78091EC019091ED01892BA9F78091B9
:1045C000E800877F8093E8008091E80080FFFCCFBF
:1045D000809111018093F1008091E8008E77BDCF2A
:1045E0008091E801813201F78091EC019091ED0119
:1045F000892BD1F68091E800877F8093E8000E94A4
:1046000030258091EA01809311010C943916809134
:10461000E801813249F68091E800877F8093E800C5
:104620000E9430258091EB018093C4010895809110
:10463000E801813A09F0B8CF8091E800877F809344
:10464000E8008091E80080FFFCCF8091C401C2CFD8
:1046500084B7877F84BF0FB6F894A89580916000D7
:10466000886180936000109260000FBE80E890E047
:104670000FB6F89480936100909361000FBE0E9482
:10468000FE110E9480250E94DD258091E200846059
:104690008093E2008FE691E20E94671C78940E946A
:1046A00065280E940A1287E091E00E94671181E16B
:1046B0009AE00E94DC058091E701853039F00E9484
:1046C0003C120E9408120E940912F5CF8DE09AE078
:1046D0000E94DC050E94931D8091E501882359F317
:1046E0000E94C41D882339F30E94DA23E4CF0C947E
:1046F0007923E92FFF27E330F105E9F060F4E13099
:10470000F10509F448C0329709F44AC0F0E0E0E04E
:1047100090E080E025C0E132F10571F1E232F1056F
:10472000A9F76115710509F440C08CEA9AE061307F
:104730007105B1F0EBCF992781309105B1F0009769
:1047400049F0029719F7E6E3FAE0E491F0E086E336
:104750009AE006C0E4E5FAE0E491F0E084E59AE04E
:10476000DA018D939C93CF010895EAE4FAE0E49195
:10477000F0E08AE49AE0F4CFE9E0F0E08AE69AE03B
:104780006115710569F3E9E0F0E083E89AE06130D2
:10479000710531F3BBCFE2E1F0E08AE99AE0E0CFC6
:1047A000E2E4F0E088E59AE0DBCFE0E4F0E08EECD4
:1047B0009AE0D6CF80E189BD82E189BD09B400FECF
:1047C000FDCF8091D8008F7D8093D8008091E0004C
:1047D00082608093E0008091E00081FDFCCF08952D
:1047E000AF92BF92CF92DF92FF920F931F93CF931E
:1047F000DF936C01EB018A010E944F25F82E811195
:1048000023C00115110539F0F80180819181C81B81
:10481000D90BC80ED91EB12CA12C2097A9F08091DC
:10482000E80085FD22C08091E8008E778093E80043
:1048300001151105A1F0F80180819181A80EB91E22
:10484000B182A08285E0F82E8F2DDF91CF911F914C
:104850000F91FF90DF90CF90BF90AF9008950E948E
:104860004F258823D1F2F82EEFCFF60181916F0109
:104870008093F1002197FFEFAF1ABF0ACECFFC0162
:104880008091EE019091EF0186179707A0F06115D6
:10489000710529F49091E8009E779093E80090E0EC
:1048A0006115710551F4911108C08091E80082FFF3
:1048B00034C080E00895BC01F2CF8091E7018823E5
:1048C000C1F18530C1F18091E80083FD30C0809155
:1048D000E80082FDEACF8091E80080FFE1CF80917F
:1048E000F3002091F200382F6115710519F028307E
:1048F000310558F091E02830310509F090E0209121
:10490000E8002E772093E800CBCF81918093F100CF
:10491000615071092F5F3F4FE7CF8091E7018823F6
:1049200041F0853041F08091E80083FFBECF81E007
:10493000089582E0089583E00895FC018091EE01DE
:104940009091EF0186179707A0F06115710529F482
:104950008091E8008E778093E80090E06115710502
:1049600051F4911108C08091E80082FF35C080E0C9
:104970000895BC01F2CF8091E7018823C9F1853009
:10498000C9F18091E80083FD31C08091E80082FD8B
:10499000EACF8091E80080FFE1CF8091F300209181
:1049A000F200382F6115710519F02830310558F0E3
:1049B00091E02830310509F090E08091E8008E7791
:1049C0008093E800CBCF84918093F10031966150C1
:1049D00071092F5F3F4FE6CF8091E701882341F0B7
:1049E000853041F08091E80083FFBDCF81E00895DC
:1049F00082E0089583E00895982F973028F08F7013
:104A00008093E90081E008959093E900242F762FA8
:104A100050E0981731F07091EC002091ED0050912A
:104A2000F00021FD02C09F5FE8CF3091EB003E7F98
:104A30003093EB003091ED003D7F3093ED003091ED
:104A4000EB0031603093EB007093EC002093ED00AD
:104A50005093F0002091EE0027FDE5CF80E008950F
:104A60008091E80187FF13C08091E80082FF06C0B3
:104A70008091E8008B778093E80004C08091E70183
:104A80008111F2CF08958091E7018823D9F38091B5
:104A9000E80080FFF8CF8091E8008E77ECCF20917E
:104AA000E4003091E50095E6A9012091EC00822F09
:104AB000817020FF06C08091E80080FF06C080E082
:104AC00008952091E80022FD1AC08091E701882313
:104AD00089F0853089F08091EB0085FD0FC0209131
:104AE000E4003091E50042175307F9F29150E1F6E6
:104AF00084E0089582E0089583E0089581E00895B8
:104B00000E94EE250E94F625E0EEF0E080818160B3
:104B10008083E8EDF0E080818F77808319BCA7ED7A
:104B2000B0E08C918E7F8C9380818F7E80831092F9
:104B3000E60108950F931F93CF93DF930E94EE2514
:104B40000E94F625C8EDD0E088818F778883888120
:104B50008068888388818F7D888319BC1092E701E3
:104B60001092E3011092E5011092E40100EE10E0D2
:104B7000F80180818B7F808388818160888342E017
:104B800060E080E00E94FC24E1EEF0E080818E7F16
:104B90008083E2EEF0E080818160808380818860A4
:104BA0008083F80180818E7F808388818061888303
:104BB000DF91CF911F910F910895E8EDF0E0808192
:104BC0008F7E8083E7EDF0E080818160808384E0E8
:104BD00082BF81E08093E6010C949A25E8EDF0E035
:104BE00080818E7F80831092E20008951092DA0017
:104BF0001092E10008951F920F920FB60F921124A8
:104C00002F933F934F935F936F937F938F939F93D4
:104C1000AF93BF93EF93FF938091E10082FF0BC0AE
:104C20008091E20082FF07C08091E1008B7F80933A
:104C3000E1000E9426228091DA0080FF19C0809155
:104C4000D80080FF15C08091DA008E7F8093DA0053
:104C50008091D90080FF96C080E189BD82E189BD45
:104C600009B400FEFDCF81E08093E7010E94FF219F
:104C70008091E10080FF19C08091E20080FF15C0A3
:104C80008091E2008E7F8093E2008091E20080615B
:104C90008093E2008091D80080628093D80019BC94
:104CA00085E08093E7010E941C228091E10084FF4F
:104CB0002BC08091E20084FF27C080E189BD82E1A2
:104CC00089BD89B5982F917080FFFBCF8091D80066
:104CD0008F7D8093D8008091E1008F7E8093E100EA
:104CE0008091E2008F7E8093E2008091E2008160FB
:104CF0008093E2008091E301882309F449C084E0B5
:104D00008093E7010E9420228091E10083FF29C067
:104D10008091E20083FF25C08091E100877F80932E
:104D2000E10082E08093E7011092E3018091E100CD
:104D30008E7F8093E1008091E2008E7F8093E2007D
:104D40008091E20080618093E20042E060E080E0D8
:104D50000E94FC248091F00088608093F0000E9403
:104D60001822FF91EF91BF91AF919F918F917F9109
:104D70006F915F914F913F912F910F900FBE0F90C8
:104D80001F90189519BC1092E7010E94112270CF54
:104D90008091E30087FD93E09093E701B3CF1F92EA
:104DA0000F920FB60F9211242F933F934F935F935F
:104DB0006F937F938F939F93AF93BF93CF93DF9323
:104DC000EF93FF93D091E900DF708091EC00C82F42
:104DD000C17080FDC0E81092E9008091F000877FEB
:104DE0008093F00078940E9413271092E90080913C
:104DF000F00088608093F000CD2BCF70C093E90065
:104E0000FF91EF91DF91CF91BF91AF919F918F91E2
:104E10007F916F915F914F913F912F910F900FBEB6
:104E20000F901F9018951F93CF93DF93CDB7DEB7E8
:104E3000AA970FB6F894DEBF0FBECDBF88EE91E003
:104E40002091F100FC012193CF01F1E0803F9F0709
:104E5000B9F70E9471228091E80083FF1EC1809102
:104E6000E8019091E9019A3008F017C1E92FF0E0CC
:104E7000E55DF64D0C94A028803899F0823809F051
:104E80000CC18091EC018F70873008F006C18093CF
:104E9000E9008091EB0085FB882780F91092E900FA
:104EA00006C08091E4019091E5019111826090919A
:104EB000E800977F9093E8008093F1001092F10052
:104EC0008091E8008E77E5C0882309F4D3C0823052
:104ED00009F0E3C08091EA018111D6C08091EC0114
:104EE0008F702FEF280F263008F0D7C08093E9008D
:104EF0002091EB0020FFC8C0933031F48091EB008B
:104F000080628093EB00C0C09091EB009061909321
:104F1000EB0021E030E001C0220F8A95EAF72093F0
:104F2000EA001092EA008091EB008860EACF8111DC
:104F3000B4C01091EA011F778091E3008078812B43
:104F40008093E3008091E800877F8093E8000E94CF
:104F500030258091E80080FFFCCF8091E3008068DD
:104F60008093E30082E0111183E08093E70195C014
:104F70008058823008F091C08091EA019091EB0155
:104F80008C3D23E09207A1F583E08A838AE289833E
:104F90004FB7F894DE01139620E03EE051E2E32F94
:104FA000F0E050935700E49120FF03C0E295EF70CA
:104FB0003F5FEF708E2F90E0EA30C0F0C7968D9380
:104FC0009D932F5F243159F74FBF8091E800877F71
:104FD0008093E8006AE270E0CE0101960E943F24CF
:104FE0008091E8008B778093E80057C0C096E7CFA8
:104FF0006091EC017091ED01AE014F5F5F4F0E9437
:105000007723BC01892B09F448C09091E800977F71
:105010009093E80089819A810E949D24E1CF803895
:10502000E1F58091E800877F8093E8008091E301BB
:105030008093F10045CF811130C09091EA01923008
:1050400060F58091E800877F8093E8009093E3010A
:105050000E9430258091E301882311F084E005C08F
:105060008091E30087FDFACF81E08093E7010E9401
:10507000672213C08091EA01813079F481E0933096
:1050800009F080E08093E5011092E9008091E8004A
:10509000877F8093E8000E9430258091E80083FF9D
:1050A0000AC08091E800877F8093E8008091EB0040
:1050B00080628093EB00AA960FB6F894DEBF0FBE15
:1050C000CDBFDF91CF911F910895CF938091E701DC
:1050D0008823A1F0C091E900CF709091EC00892F56
:1050E000817090FD80E8C82B1092E9008091E80063
:1050F00083FD0E941327CF70C093E900CF910895DC
:10510000991B79E004C0991F961708F0961B881F19
:105110007A95C9F780950895AA1BBB1B51E107C07A
:10512000AA1FBB1FA617B70710F0A61BB70B881F37
:10513000991F5A95A9F780959095BC01CD010895C6
:10514000EE0FFF1F0590F491E02D0994FB01DC01A7
:1051500002C005900D9241505040D8F70895F9993A
:10516000FECF92BD81BDF89A992780B50895A6E13A
:10517000B0E044E050E00C94E928A8E1B0E042E05F
:1051800050E00C94E928262FF999FECF92BD81BDFD
:10519000F89A019700B4021639F01FBA20BD0FB675
:1051A000F894FA9AF99A0FBE08950396272F0E9451
:1051B000C4280E94C328252F0E94C428242F0C94A1
:1051C000C4280196272F0E94C4280C94C328DC0110
:1051D000CB01FC01F999FECF06C0F2BDE1BDF89A02
:1051E000319600B40D9241505040B8F70895F894AC
:1051F000FFCFEE0EF60EFD0E020F070F0C0F110F74
:10520000160F1B0F200F250F2A0FF00EF00EF00EB9
:10521000F00EF00EF00EF00EF00E351435148D1465
:105220008D146214621462146214DF146B157A1503
:105230007A15D61562146214DF15481648165116F1
:10524000511653165116511651164816481658162F
:105250005116511658163C2764274D2864274D28AF
:0A5260009727B8274D280F281B28B8
:10526A000001000101AA016A21D1216D216E21FEEE
:10527A00210193F4F6369766C63435323331F7F5A1
:06528A0090949100010068
:00000001FF
