:100000000C94D8050C941F060C941F060C941F0624
:100010000C941F060C941F060C941F060C941F06CC
:100020000C941F060C941F060C9470260C94442705
:100030000C94591E0C941F060C941F060C941F065A
:100040000C941F060C941F060C941F060C941F069C
:100050000C941F060C94B01E0C941F060C941F06E3
:100060000C941F060C941F060C941F060C941F067C
:100070000C941F060C941F060C941F060C941F066C
:100080000C941F060C941F060C941F060C941F065C
:100090000C941F060C941F060C941F060C941F064C
:1000A0000C941F060C941F060C941F0635001400B8
:1000B0001A000800150017001C0018000C001200A0
:1000C00013002D002A002B0000000400160007007A
:1000D00009000A000B000D000E000F00330028007D
:1000E000E10000001D001B000600190005001100C2
:1000F0001000360037005200E500E0000000280044
:10010000E200E300015100002C000000015150000A
:1001100051004F0001001E001F002000210022009E
:10012000230024002500260027002E004C00290073
:1001300000003A003B003C003D003E003F008900CB
:100140002F00300034003900010000004000410061
:1001500042004300440045003800870031004B0056
:100160000100010000002A00010046008B00000091
:100170008A00000088004A004E004D004445425568
:10018000473A2064697361626C65642E0A004445D5
:100190004255473A20656E61626C65642E0A000A1A
:1001A000002530313662003A200025303258000AEE
:1001B000722F63203031323334353637383941428B
:1001C000434445460A007267626C6967687420732D
:1001D000657420687376205B4E4F454550524F4DF5
:1001E0005D3A2025752C25752C25750A00726762ED
:1001F0006C696768742073657420687376205B454A
:100200004550524F4D5D3A2025752C25752C25758E
:100210000A007267626C696768742064697361625E
:100220006C65205B454550524F4D5D3A20726762C8
:100230006C696768745F636F6E6669672E656E616F
:10024000626C65203D2025750A007267626C6967E3
:10025000687420656E61626C65205B4E4F45455049
:10026000524F4D5D3A207267626C696768745F63D4
:100270006F6E6669672E656E61626C65203D202534
:10028000750A007267626C6967687420656E6162E6
:100290006C65205B454550524F4D5D3A2072676258
:1002A0006C696768745F636F6E6669672E656E61FF
:1002B000626C65203D2025750A007267626C696773
:1002C000687420746F67676C65205B454550524FBA
:1002D0004D5D3A207267626C696768745F636F6E28
:1002E0006669672E656E61626C65203D2025750A22
:1002F000007267626C69676874206D6F6465205B6B
:100300004E4F454550524F4D5D3A2025750A0072BB
:1003100067626C69676874206D6F6465205B454532
:1003200050524F4D5D3A2025750A007267626C6924
:100330006768745F696E6974207267626C69676868
:10034000745F636F6E6669672E6D6F6465203D2014
:10035000302E2057726974652064656661756C740F
:100360002076616C75657320746F20454550524F3F
:100370004D2E0A007267626C696768745F696E6906
:1003800074206565636F6E666967206973206E6FA0
:100390007420656E61626C65642E0A007267626C1F
:1003A000696768745F696E6974207374617274211F
:1003B0000A007267626C696768745F696E697420AD
:1003C00063616C6C65642E0A007267626C696768B1
:1003D000745F636F6E6669672E7370656564203D38
:1003E0002025640A007267626C696768745F636FD6
:1003F0006E6669672E76616C203D2025640A007266
:1004000067626C696768745F636F6E6669672E7395
:100410006174203D2025640A007267626C69676818
:10042000745F636F6E6669672E687565203D202571
:10043000640A007267686C696768745F636F6E66F0
:1004400069672E6D6F6465203D2025640A00726720
:10045000626C696768745F636F6E6669672E656E4C
:1004600061626C65203D2025640A007267626C69D8
:100470006768745F636F6E66696720454550524FC9
:100480004D3A0A00000101010101010101010202CE
:100490000202020202020203030303030303030432
:1004A00004040404040405050505050606060606FD
:1004B000070707070708080808090909090A0A0AB7
:1004C0000B0B0B0C0C0C0D0D0D0E0E0E0F0F0F1059
:1004D00010111111121213131414151516161717E3
:1004E000181819191A1A1B1B1C1D1D1E1E1F20204F
:1004F000212222232424252626272829292A2B2C99
:100500002D2D2E2F30313232333435363738393ABB
:100510003B3C3D3E3F404142434445464748494AB3
:100520004C4D4E4F50515354555658595A5B5D5E81
:100530005F616264656668696B6C6D6F707273751C
:1005400077787A7B7D7E8082838587888A8C8E8F80
:1005500091939596989A9C9EA0A2A3A5A7A9ABADAE
:10056000AFB1B3B5B7BABCBEC0C2C4C6C9CBCDCF9C
:10057000D1D4D6D8DBDDDFE2E4E7E9EBEEF0F3F54A
:10058000F8FAFDFF0A002530325820006B657962C9
:100590006F6172645F7265706F72743A20000A0056
:1005A00025303258006B6579626F6172645F7365E4
:1005B000745F6C65643A20003F00433E20004C2588
:1005C000640A0074696D65725F7265616433322814
:1005D000293A202530346C580A006B6579626F61C6
:1005E00072645F69646C653A2025580A006B65790E
:1005F000626F6172645F70726F746F636F6C3A20C8
:1006000025580A00686F73745F6B6579626F617259
:10061000645F6C65647328293A2025580A000A092A
:100620002D20537461747573202D0A004743433A9B
:1006300020382E342E30204156522D4C4942433A18
:1006400020322E302E30204156525F415243483ADC
:1006500020617672350A004F5054494F4E533A206C
:100660004C55464120434F4E534F4C4520434F4D30
:100670004D414E4420343039360A004255494C44ED
:100680003A2020284D617220323620323032312912
:100690000A005649443A20307846454544283247B6
:1006A0007029205049443A20307830303031284683
:1006B0004C54343050325329205645523A20307829
:1006C000303030310A000A092D2056657273696F87
:1006D0006E202D0A000A092D20436F6E736F6C6522
:1006E000202D0A4553432F713A09717569740A0028
:1006F0000A092D204D61676963202D0A443A094497
:1007000065627567204D65737361676520546F6717
:10071000676C650A583A094D6174726978204465BE
:10072000627567204D6F646520546F67676C652044
:100730002D2053686F77206B6579707265737365D0
:100740007320696E206D61747269782067726964C4
:100750000A4B3A094B6579626F61726420446562A5
:10076000756720546F67676C65202D2053686F771D
:10077000206B65797072657373207265706F727427
:100780000A4D3A094465627567204D6F757365209F
:10079000546F67676C650A563A0956657273696FDC
:1007A0006E0A533A095374617475730A433A0941E6
:1007B0006374697661746520436F6E736F6C652036
:1007C0004D6F64650A46312D4631303A09537769D9
:1007D00074636820746F204C6179657220302D3904
:1007E0002028463130203D204C30290A302D393A1E
:1007F0000953776974636820746F204C617965725E
:1008000020302D390A47524156453A0953776974C9
:10081000636820746F204C617965722030202861F4
:100820006C7465726E617465290A423A094A756D85
:100830007020746F20426F6F746C6F616465720A10
:100840004553433A094A756D7020746F20426F6FAB
:10085000746C6F616465722028616C7465726E617E
:100860007465290A453A095072696E7420454550ED
:10087000524F4D2053657474696E67730A4253502A
:100880004143453A09436C65617220454550524FDA
:100890004D0A000A002575002E6E6B726F3A20001B
:1008A0000A002575002E737761705F6261636B7358
:1008B0006C6173685F6261636B73706163653A203A
:1008C000000A002575002E737761705F677261768C
:1008D000655F6573633A20000A002575002E6E6F10
:1008E0005F6775693A20000A002575002E737761ED
:1008F000705F72616C745F726775693A20000A00FC
:100900002575002E737761705F6C616C745F6C6726
:1009100075693A20000A002575002E737761705FB3
:100920007263746C5F726775693A20000A002575FE
:10093000002E737761705F6C63746C5F6C677569B0
:100940003A20000A002575002E636170736C6F6396
:100950006B5F746F5F636F6E74726F6C3A20000A26
:10096000002575002E737761705F636F6E74726F10
:100970006C5F636170736C6F636B3A20000A0025D3
:10098000303258006B65796D61705F636F6E6669B8
:10099000672E7261773A20000A002575002E6D6F70
:1009A0007573653A20000A002575002E6B65796223
:1009B0006F6172643A20000A002575002E6D617423
:1009C0007269783A20000A002575002E656E616212
:1009D0006C653A20000A0025303258006465627563
:1009E000675F636F6E6669672E7261773A20000AEF
:1009F0000025750064656661756C745F6C6179656E
:100A0000723A20003F000A6D6F7573653A206F6679
:100A1000660A000A6D6F7573653A206F6E0A000AE8
:100A20006B6579626F6172643A206F66660A000ACC
:100A30006B6579626F6172643A206F6E0A000A6DAD
:100A400061747269783A206F66660A000A6D617493
:100A50007269783A206F6E0A000A64656275673AB7
:100A6000206F66660A000A64656275673A206F6ED9
:100A70000A000A0A4A756D70696E6720746F2062F9
:100A80006F6F746C6F616465722E2E2E2000433E72
:100A90002000436C656172696E6720454550524F76
:100AA0004D0A006565636F6E6669673A0A005B739D
:100AB0005D004B6579626F6172642073746172745A
:100AC0002E0A005B575D005B535D005B525D005B6F
:100AD000445D005B435D00120346004C005400344B
:100AE000003000500032005300000008033200477D
:100AF0000070000000040309040902420002010022
:100B0000A0FA0904000001030101000921110100FC
:100B1000012240000705810308000A0904010002C0
:100B200003000000092111010001222200070582B3
:100B3000032000010705020320000112011001003B
:100B4000000008EDFE01000100010200010631FF76
:100B50000974A1010975150026FF0095207508810B
:100B6000020976150026FF00952075089102C00540
:100B7000010906A101050719E029E71500250195DE
:100B80000875018102950175088101050719002981
:100B9000FF150026FF00950675088100050819015C
:100BA0002905950575019102950175039101C00014
:100BB00011241FBECFEFDAE0DEBFCDBF04B603FEC7
:100BC00027C08091F0019091F101A091F201B091C4
:100BD000F3018730904BA740B04BD1F41092F00155
:100BE0001092F1011092F2011092F30114BE84B739
:100BF000877F84BF0FB6F894A895809160008861C4
:100C000080936000109260000FBEE0E0F8E3099569
:100C100011E0A0E0B1E0E4E5F3E502C005900D923B
:100C2000A632B107D9F721E0A6E2B1E001C01D92DA
:100C3000A03FB207E1F70E949D230C946C290C940D
:100C40000000FF93EF93E0912601F0912701309788
:100C500009F00995EF91FF910895FC01859180308D
:100C600011F0EFDFFBCF0895FF27E0E230E247FF0E
:100C70000CC0419597FF09C0EDE260957095809595
:100C80009095611D711D811D911D27FF02C0219549
:100C900030E350E2AA27660F771F881F991FAA1F0B
:100CA000A41710F0A41B63955A95A9F7AA3008F071
:100CB000A95FA05DAF93F39561157105810591055D
:100CC00041F7ED3211F4EF93F395F21718F43F93D7
:100CD000F395FBCF8F91B5DFFA95E1F70895E99190
:100CE000F9918591803021F0853219F0AADFF9CF92
:100CF000089520E0E89455915532C1F3503311F432
:100D0000689455915A3348F4505390F3220F022EB1
:100D1000220F220F200D250FF4CF0EF4219589917B
:100D20009991533619F3533729F1533559F1BC01D1
:100D300088279927E8945C3621F4899199916894E1
:100D40005591543639F446EF7EF077FF0DC08FEFA2
:100D50009FEF0AC055374AE039F0583540E121F09D
:100D6000523642E009F00895FF93EF937DDFEF9153
:100D7000FF91B7CFFF93EF93FC0181918030B9F3DE
:100D800060DFFBCFFF93EF9368DFF1CFDF93CF936B
:100D9000CDB7DEB72596A3DFCF91DF9108950E94EE
:100DA0002E0F44E66FEF85E50E943E0E80E00C9426
:100DB000A81A81E0089581E008950C94DB06089557
:100DC0000C94DF061F93CF93DF9300D000D00F92D7
:100DD000CDB7DEB749835A836B8330914401898153
:100DE0009A8131111DC06623B9F02223A9F00E9417
:100DF000981B182F682F89819A810E94441B698152
:100E00007A81812F0F900F900F900F900F90DF91AC
:100E1000CF911F910C94AE070E94701B182FEFCF3B
:100E20000E94981B69817A81EDCFFC01262F4081B9
:100E300051816281738184810C94E206CF93DF93A8
:100E4000EC0160E00E941507BE01DF91CF910C9488
:100E5000E0060E94061D811102C00E94AA1D0C948A
:100E600098090C949B0908950E94AE160E943307BE
:100E70002FEF84E39CE0215080409040E1F700C0D8
:100E800000000C94D41E0F931F93CF93DF93EC01BB
:100E900061E00E9415078C01BE010E94DD068823D7
:100EA00041F1BE01C8010E943E10882311F1BE012C
:100EB000C8010E9490108823E1F0BE01C8010E9481
:100EC000B3118823B1F0BE01C8010E944E0F8823E0
:100ED00081F08A81882341F101308CE5180779F08F
:100EE0000F3D8CE51807E9F001151C45E9F40E9457
:100EF000340780E0DF91CF911F910F910895909179
:100F0000B501892F8E7F90FF81608093B50180FFAE
:100F100005C08EE891E00E942D06EBCF8CE791E0B2
:100F2000FACF0E94AA1DE5CFCE01DF91CF911F918C
:100F30000F910C94D90608950C949B0781E00895B5
:100F40000C949E07CF93C82F0E949C078C2FCF91A3
:100F50000C94A00790E080E008950895972F70E02A
:100F60002DE0929F600D711D1124FB0194E3899F78
:100F7000E00DF11D1124EE0FFF1FE455FF4F859189
:100F800094910895FC01EE0FFF1FE156FE4F8591ED
:100F900094910895CF93DF930E94AE070E94BD08FD
:100FA000EC01811521E59207D0F5811530E5930715
:100FB00008F096C081159042F8F4C11581E0D80779
:100FC000B8F4C03ED10588F4C03CD10508F07BC020
:100FD000C130D10569F0209759F0CE010497813ACC
:100FE000910530F0D0E0C0E003C0C83ED105D0F795
:100FF000CE01DF91CF910895C11590E4D90708F093
:101000006CC0CE019F70C11520E3D20708F45EC00A
:10101000CE019927D3FF5EC0EC01D86CE9CF8115D2
:1010200035E5930700F5811544E5940708F08DC078
:10103000C11583E5D80708F074C0C11592E5D9073A
:1010400008F46AC0CE018370992721E030E002C025
:10105000220F331F8A95E2F7C695C69580E2C89F96
:10106000E001112455C0811529E59207A0F48115EE
:1010700038E5930708F06EC0811546E5940708F03F
:10108000B1CF0E945409C82FD0E0DC2FCC27CC2749
:10109000DF71D062ADCFC1158AE5D80708F45FC013
:1010A000CE0190568115904208F09CCF8D2F8F7104
:1010B0000E94540990E0982F882788279F719C01EF
:1010C0002C2BE901E6CFCE01805C91090E94C2077A
:1010D000EC018ECFEC01D06C8BCFDF70D06A88CF63
:1010E000E4E096958795EA95E1F783702C2F269595
:1010F0002695237040E2249F90011124382B8C2FD9
:101100008370C1E0D0E002C0CC0FDD1F8A95E2F70A
:10111000C22BD32BDC686CCFDC2FCC27C16FD06AFD
:1011200067CFCE018370992721E030E002C0220F03
:10113000331F8A95E2F7C695C69590E2C99FE001F4
:101140001124C22BD32BDA6853CFD82FCC27C46FEE
:10115000D06A4ECFD82FCC27C06FD06A49CF8C2F02
:101160008F700E94540934E0D695C7953A95E1F7FF
:10117000CF709C2FEC01D0693BCF82389105B1F143
:10118000B0F48133910509F475C048F489329105B2
:1011900009F469C08A32910509F473C00895853352
:1011A000910509F459C08933910501F10895833EF1
:1011B0009105A9F138F4803E9105F9F0823E910540
:1011C00049F10895863E9105A9F1873E9105C9F13F
:1011D000843E910519F52091E20121FF1FC0809105
:1011E000E10184FD14C087EE90E008952091E101B3
:1011F0002370A1F080EE90E008952091E10120FDA0
:1012000047C03091E20130FF09C024FF44C090E0A4
:1012100080E004C02091E10122FDF7CF08952091E4
:10122000E10122FD3BC03091E20130FDE3CF24FF1C
:10123000F5CFEDCF2091E10123FFF0CF24FDE7CFE3
:10124000D2CF2091E10123FD2CC03091E20131FF8A
:10125000EECF84EE90E008952091E10125FFDECFEE
:1012600089E290E008952091E10125FFD7CF85E341
:1012700090E008952091E10126FFD0CF8AE290E02E
:1012800008952091E10126FFC9CF81E390E0089500
:1012900089E390E0089583EE90E0089582EE90E077
:1012A000089586EE90E008959091E10192FF06C0C6
:1012B000282F28712830F9F4877F846093FF06C0B7
:1012C000282F28712831F1F4877E84612091E20172
:1012D00020FF06C0382F38713830D9F4877F8160FD
:1012E00021FF06C0282F28712831D1F4877E816123
:1012F00094FD877E0895282F24712430F9F68B7F82
:101300008860DCCF282F2471243101F78B7E88611F
:10131000DDCF382F3171313019F78E7F8860E0CF03
:10132000282F2171213121F78E7E8861E1CF089528
:101330000C94970908950C949A09E82FF0E0EE0FA9
:10134000FF1FE353FE4F808191810895CF92DF927A
:10135000EF92FF920F931F93CF93DF938FEA91E069
:101360000E942D068DECE82E81E0F82ED0E0C0E042
:101370009AEAC92E91E0D92E01EA11E0DF93CF93CA
:10138000DF92CF920E94C60687EA91E00E942D0666
:10139000F701819191917F010E94F91C9F938F9396
:1013A0001F930F930E94C6068FE991E00E942D06BD
:1013B00021968DB79EB708960FB6F8949EBF0FBEC4
:1013C0008DBFC430D105D1F6DF91CF911F910F9120
:1013D000FF90EF90DF90CF90089580EA8A95F1F723
:1013E0000895F894E82FE295EF70F0E031A1282FEE
:1013F0002F7081E090E001C0880F2A95EAF7982FBE
:101400009095932391A392A1892B82A37894089518
:10141000CF93DF9385EF0E94F10980E90E94F109E3
:1014200084E90E94F10981E90E94F109C2E1D1E059
:1014300089910E94F10981E0CF31D807C9F7109254
:10144000C6011092C5011092CE011092CD011092EA
:10145000C8011092C7011092D0011092CF011092D2
:10146000CA011092C9011092D2011092D1011092BA
:10147000CC011092CB011092D4011092D30184E0E0
:101480000E94C40ADF91CF910C942907AF92BF92BA
:10149000DF92EF92FF920F931F93CF93DF93CFE1F1
:1014A000D1E005EC11E0D12CEE24E394F12C8991EC
:1014B000F894E82FE295EF70F0E021A18F70A7017A
:1014C00002C0440F551F8A95E2F7CA01922F982B4C
:1014D00091A392A18095892382A378940E94ED091B
:1014E000E2E1F1E030E020E0B12CA12C4191A42F09
:1014F000A295AF70B0E090968C9190E04F7002C0D2
:10150000959587954A95E2F780FD39C0C701022E6F
:1015100002C0880F991F0A94E2F7A82AB92A2F5F00
:101520003F4F2D30310511F7FE01319780810E9428
:10153000F109F80180819181A816B90619F1B182EB
:10154000A08281E0D82A0E5F1F4FF1E0C332DF078F
:1015500009F0ADCF2D2D44E06DEC71E085EC91E00C
:101560000E94C50A0E9431078D2DDF91CF911F91F6
:101570000F91FF90EF90DF90BF90AF90089590E0B3
:1015800080E0CBCF80E0DECF0895FF920F931F93D2
:10159000CF93DF93F82E092F162FD72FC42F222396
:1015A00049F081E080932A010E94891E90932901CD
:1015B0008093280180912A018823A1F0809128013D
:1015C000909129010E94A11E069760F0EF2DF02F47
:1015D000A12FBD2F90E080E0D0E08C179D0744F054
:1015E00010922A01DF91CF911F910F91FF900895E2
:1015F000219131912D933D930196EFCFEF92FF9280
:101600000F931F93CF93DF93EB01E82FD11110C0FD
:10161000442321F0F0E0EC57FB4FE4916E2F7E2F36
:101620008E2FDF91CF911F910F91FF90EF90089532
:101630000D2F10E0282F30E0442329F02C573B4F8A
:10164000F901249130E0F6E0CF9FC0011124EFEFC3
:10165000F0E0BF010E940129AB018C2F90E0880FC0
:10166000991FA5E5A49FB001A59F700D1124861BAD
:10167000970B982F990F980FBF01601B710B629FFA
:10168000D001639FB00D729FB00D11248B2F9D9FD1
:10169000B0011124672F7727EF01C61BD70BBE01BE
:1016A000629FE001639FD00D729FD00D11247F01D6
:1016B000E91AF108E09EB001E19E700DF09E700DF8
:1016C0001124672F7727E61BF70BE29F8001E39F2A
:1016D000100DF29F100D1124E12F722F4230510591
:1016E00099F048F44115510569F04130510581F0F8
:1016F000EB2F8D2F07C04430510569F080F0463044
:101700005105B1F76E2F8DCFE22F7B2F812FFACFAE
:10171000E22F7D2FF7CFEB2F822F712FF3CF7B2F6F
:10172000822FED2FEFCF41E00C94FE0A0C94930B27
:10173000CF93DF93762FE901682F842F0E94960BB9
:10174000798368838A83DF91CF9108958091D50151
:10175000982F9E7F39F48091D501817082608093AB
:10176000D50108958430B8F7089588E090E00C948E
:101770002C29CF92DF92EF92FF926B017C010E94A5
:10178000A60BB701A60188E090E0FF90EF90DF90F4
:10179000CF900C944A29E5EDF1E083E0808311823B
:1017A0008FEF828383831482608171818281938130
:1017B0000C94B90B8091B50180FF76C08BE694E064
:1017C0009F938F930E94C6068091B5010F900F9052
:1017D00080FF6AC08091D50181701F928F938EE443
:1017E00094E09F938F930E94C6068091B5010F905D
:1017F0000F900F900F9080FF57C08091D501869574
:101800001F928F9383E394E09F938F930E94C60669
:101810008091B5010F900F900F900F9080FF44C002
:101820008091D6011F928F9389E194E09F938F93CB
:101830000E94C6068091B5010F900F900F900F90F7
:1018400080FF32C08091D7011F928F938FEF93E07A
:101850009F938F930E94C6068091B5010F900F90C1
:101860000F900F9080FF20C08091D8011F928F931E
:1018700085EE93E09F938F930E94C6068091B501F9
:101880000F900F900F900F9080FF0EC08091D901A4
:101890001F928F9389EC93E09F938F930E94C606CB
:1018A0000F900F900F900F9008959091D901933061
:1018B00018F49F5F9093D901882351F06091D5016E
:1018C0007091D6018091D7019091D8010C94B90BF9
:1018D000089581E00C94550C9091D901992319F049
:1018E00091509093D901882351F06091D501709166
:1018F000D6018091D7019091D8010C94B90B08952D
:1019000081E00C946C0C21E030E001C0220F8A953C
:10191000EAF790913001922381E009F480E0089584
:1019200070E00C94A60F6F927F928F929F92AF926D
:10193000BF92CF92DF92EF92FF920F931F93CF93BC
:10194000DF9300D000D00F92CDB7DEB770900101C9
:101950002091D50120FF26C0C0902B01D0902C01F2
:10196000C114D10491F58091000133E0839FC0013F
:101970001124672D86529E4F0E94900C0F900F905D
:101980000F900F900F90DF91CF911F910F91FF90CB
:10199000EF90DF90CF90BF90AF909F908F907F900F
:1019A0006F900895E091020180910301E817A0F67D
:1019B0008E2F90E0FC01EE0FFF1FE80FF91FE6529B
:1019C000FE4F118210821282C7CF20FFCCCFF12CA4
:1019D000E12C43E0642E8E2D0E94830C882309F4B1
:1019E0003CC0F701EE0FFF1FEC0DFD1DA590B4905C
:1019F000A114B10409F4B7CF45E050E0B501CE0120
:101A000001960E941B2909810F3F39F18A81800FBD
:101A10009927991F1816190614F481E090E04C01DB
:101A2000880C991C880D991D9C0126523E4F490136
:101A3000069D8001112406521E4F0815190520F03D
:101A400035E0A30EB11CD8CF98014D816C818B81FC
:101A50000E94980B0D5F1F4FF0CF8FEFE81AF80A26
:101A600028E0E216F10409F0B6CF7DCF8091D501D0
:101A70008E7F8093D5016091D5017091D6018091C0
:101A8000D7019091D8010E94B90B8091B50180FFD8
:101A90000FC08091D50181701F928F9382E192E0F7
:101AA0009F938F930E94C6060F900F900F900F90F8
:101AB0002FEF80E792E0215080409040E1F700C096
:101AC00000000C94930C9091D50190FF14C0E0910C
:101AD000020190910301E91760F42E2F30E0F90123
:101AE000EE0FFF1FE20FF31FE652FE4F818360836C
:101AF00042830C94930C0895EF92FF920F931F93DF
:101B0000CF93DF9300D00F92CDB7DEB7182F062FFB
:101B1000F42EE22E8091D50180FF43C0E82FE69598
:101B2000F0E0ED5DFE4F908190932E018E7F82302C
:101B300059F49E012F5F3F4F812F0E94980B4B81DC
:101B400069818A810E94630D1093D6010093D701A9
:101B5000F092D801EE2079F16091D5017091D60113
:101B60008091D7019091D8010E94B90B8091B50165
:101B700080FF17C08091D8011F928F938091D70169
:101B80001F928F938091D6011F928F938DEE91E0DB
:101B90009F938F930E94C6060FB6F894DEBF0FBEC8
:101BA000CDBF0F900F900F90DF91CF911F910F91AC
:101BB000FF90EF9008958091B50180FFF2CF1F92C2
:101BC000FF921F920F931F921F9386EC91E0E0CF3C
:101BD000E5EDF1E09181282F4381628188E0890F52
:101BE0000C947C0D81E00C94E80DE5EDF1E0918121
:101BF000282F4381628188EF890F0C947C0D81E04E
:101C00000C94F50DE5EDF1E0628121E1620F08F43D
:101C10006FEF282F438181810C947C0D81E00C941F
:101C2000020EE5EDF1E0628121E1621B08F460E063
:101C3000282F438181810C947C0D81E00C94110E3E
:101C4000E5EDF1E0438121E1420F08F44FEF282F49
:101C5000628181810C947C0D81E00C94200EE5ED75
:101C6000F1E0438121E1421B08F440E0282F62812A
:101C700081810C947C0D81E00C942F0E20E00C945B
:101C80007C0D8091D50180FF35C08170826080938A
:101C9000D501662329F16091D5017091D60180911B
:101CA000D7019091D8010E94B90B8091B50180FFB6
:101CB0000FC08091D50186951F928F938FE093E09E
:101CC0009F938F930E94C6060F900F900F900F90D6
:101CD0004091D8016091D7018091D6010C943E0EBD
:101CE0008091B50180FFF4CF1F9281E08F9381EF47
:101CF00092E0E6CF0895682F81E00C94410E81E0D8
:101D00000C947B0E682F9091D50196958FEF890FDB
:101D100009F481E00C94410E81E00C94820E61E0A4
:101D20000C94410E8091D50181608093D501809102
:101D3000B50180FF0DC01F9281E08F9383E892E090
:101D40009F938F930E94C6060F900F900F900F9055
:101D50008091D50186950C948F0E8091B50180FFFE
:101D600010C08091D501809581701F928F938AEB6E
:101D700092E09F938F930E94C6060F900F900F9052
:101D80000F908091D50180FD0C94360D0C94920E2D
:101D900060E00C94410E80912D0181115EC0809114
:101DA000B50180FF14C082EB93E09F938F930E9454
:101DB000C6068091B5010F900F9080FF08C08CE996
:101DC00093E09F938F930E94C6060F900F900E94FE
:101DD000061D811110C08091B50180FF08C084E705
:101DE00093E09F938F930E94C6060F900F900E94DE
:101DF000AA1D0E94CB0B0E94B50B6093D501709376
:101E0000D6018093D7019093D8016E7FC1F4809161
:101E1000B50180FF08C08BE293E09F938F930E94EF
:101E2000C6060F900F900E94CB0B0E94B50B6093DB
:101E3000D5017093D6018093D7019093D8010E9469
:101E4000A60B0E94DA0B8091D50180FF03C0869516
:101E50000E94C80E81E080932D0108958091D501E4
:101E600081608093D5018091B50180FF0DC01F92E4
:101E700081E08F938AE492E09F938F930E94C6063D
:101E80000F900F900F900F908091D50186950C9434
:101E9000C80EFA01811101C0FB0109940F931F9331
:101EA000CF938C01FB01C281CC2309F44DC00E9469
:101EB0002D1C8272F801E35CFC45E431F10538F435
:101EC000E259F64D0C9415290E94AD0EC0E08C2FFE
:101ED000CF911F910F9108954CE85EE06FE77EE08F
:101EE0000E94490FF3CF4FE75EE06CE87EE0F8CF49
:101EF0004FEF5DE062EF7DE0F3CF42EF5DE06FEF2B
:101F00007DE0EECF4DE15EE06EE07EE0E9CF4EE0B9
:101F10005EE06DE17EE0E4CF4BE35EE06CE27EE00C
:101F2000DFCF4CE25EE06BE37EE0DACF40E85CE0DE
:101F300069E67CE0D5CF49E65CE060E87CE0D0CFA4
:101F400081E00E948F0EC2CFC1E0C1CF529A4BB147
:101F50004B7F5BB15460EFB7F8949B01220F331FA6
:101F6000260F371F280F391F2817390741F4EFBFF5
:101F70008FE594E00197F1F700C000000895DC01BF
:101F80006D91CD0178E05BB9000000C067FF4BB9EF
:101F9000660F000000C000C000C04BB900C07A95B9
:101FA00091F7E2CF0F931F93CF93DF93C42FD22FDC
:101FB000FC0182818823C9F0409333010E94891E6D
:101FC000909332018093310180E28C0F883008F0C9
:101FD00050C0C77081E001C0880FCA95EAF7DF9151
:101FE000CF911F910F910C9465141091330114132C
:101FF00035C080913101909132010E94A11E883C30
:10200000910560F5C0E2CD0F1D17B9F080E2810F98
:10201000883040F4177081E001C0880F1A95EAF704
:102020000E946C14C83048F481E09D2F977001C065
:10203000880F9A95EAF70E946514802F0E94521427
:10204000C830B8F4D77081E001C0880FDA95EAF79C
:10205000DF91CF911F910F910C946C1480E28C0F43
:10206000883038F4C77081E001C0880FCA95EAF75C
:10207000EFCFDF91CF911F910F9108950F939C01A6
:10208000CB01243F4CE5340759F1A8F4293DFCE588
:102090003F0701F12A3D4CE53407D1F1283D3C458D
:1020A00091F406E221EE41EE68ED7CE50E94D20F4C
:1020B00080E00F910895263FFCE53F07E9F0B0F07E
:1020C000273F3C45F9F0FC018281882339F11092C9
:1020D0003301EFCF07E225EE45EE69ED7CE5E6CF73
:1020E00006E221EE40EE64EF7CE5E0CF07E225EE6C
:1020F00044EE65EF7CE5DACF06E221EE42EE66EFD4
:102100007CE5D4CF07E225EE46EE67EF7CE5CECF47
:1021100008E221E045EE6AED7CE5C8CF81E0C9CF59
:10212000CF93DF93EC01FB018281882309F419C16D
:10213000C230FCE5DF07C0F1C6319CE5D90730F0BD
:102140009E012B5F3C452930310570F50E94191D19
:102150009093E2018093E101C031ECE5DE0709F4E0
:10216000CFC008F05BC0C8308CE5D80709F4B6C012
:1021700088F5C430ECE5DE0709F4A8C0C0F4C2302D
:102180008CE5D80709F49CC08091E1018260C330DE
:10219000DC4509F498C08091E1019091E2010E9430
:1021A000271D0E94AE1680E0DF91CF9108958091A7
:1021B000E1018061C630ECE5DE0709F484C080915E
:1021C000E1018860C730DC4508F47DC08091E10101
:1021D000806279C0CC308CE5D80709F489C070F4EE
:1021E0008091E1018C60CA30ECE5DE0709F46BC038
:1021F00008F478C08091E1018E7F65C0CE308CE517
:10220000D80709F479C08091E1018B7FCF30DC459C
:1022100008F459C08091E1018F7E55C0CC3FECE5B8
:10222000DE0709F457C030F5C3318CE5D80709F44F
:102230006FC078F4C131ECE5DE0709F465C0C23146
:10224000DC4509F0A8CF0E94AE168091E1018F779E
:102250003AC0C5318CE5D80709F462C008F476C0ED
:102260008091E2018160CB3FDC4509F094CF8093FF
:10227000E20191CFC115FDE5DF0709F44DC088F4F7
:102280008091E2018D7FCE3F9CE5D90781F380915B
:10229000E2018E7FCF3FDC4550F38091E201836005
:1022A000E6CFC230FDE5DF0709F459C008F444C0A9
:1022B00080E0C330DD4509F06ECF0E94AC1D6BCFCE
:1022C0008091E10181608093E10165CF8091E1011E
:1022D0008460F9CF8091E2018260C9CF8091E101F1
:1022E0008064F1CF0E94AE168091E1018068EBCF4F
:1022F0008091E1018D7FE7CF8091E101877FE3CF7E
:102300008091E1018F7DDFCF8091E1018F7BDBCF79
:102310008091E101837FD7CF8091E2018C7FA7CFAD
:102320008091E10182FB992790F921E0922790FBAF
:1023300082F990FB83F9C7CF8091E201982F9095A5
:1023400091708E7F892B90FB81F991CF0E94AE1600
:102350009091E101892F97FB87F98058B4CF81E0F4
:10236000ACCF81E021CFCF93DF93EB0186319C4549
:1023700011F50E942D1C9A81992399F08A7A91E097
:1023800009F490E090933401811109C089E20E9420
:10239000081C0E94791C80E0DF91CF91089585E3AD
:1023A000F6CF80913401811104C089E20E940F1C94
:1023B000F0CF85E3FBCF81E0EFCF90933A0180939C
:1023C00039010895E0913901F0913A01309721F0F7
:1023D0000190F081E02D099480E00895EF92FF9242
:1023E0000F931F93CF93DF938C01E0913901F0910C
:1023F0003A013097C1F10280F381E02D0995809177
:10240000B50182FF30C080FF04C08CE895E00E94D7
:102410002D06D0E0C0E086E8E82E85E0F82E809119
:10242000B50180FF0EC0F801EC0FFD1F80811F92E7
:102430008F93FF92EF920E94C6060F900F900F901D
:102440000F902196C830D10551F78091B50180FFDA
:102450000AC084E895E0DF91CF911F910F91FF9022
:10246000EF900C942D06DF91CF911F910F91FF906B
:10247000EF900895209137013091380128173907DE
:1024800071F09093380180933701E0913901F09118
:102490003A01309721F00680F781E02D09940895E4
:1024A00020913501309136012817390771F090934A
:1024B000360180933501E0913901F0913A0130976E
:1024C00021F00084F185E02D0994089585B7806896
:1024D00085BF85B7806885BF0895089508950C94D9
:1024E0006D120C94CF060E9466120E946E120C941C
:1024F0006F1281E008950C947912089508950E9456
:10250000801E0E94080A0E94F81E0E94CB0E0C94A6
:102510007112CF93C82F8091B50182FF1EC080FF3A
:102520001CC085EA95E00E942D068091B50180FFD0
:1025300014C01F92CF9380EA95E09F938F930E94DF
:10254000C6068091B5010F900F900F900F9080FFFD
:1025500004C08EE995E00E942D068C2FCF910C943B
:10256000A2079F92AF92BF92CF92DF92EF92FF921B
:102570000F931F93CF93DF93CDB7DEB72A970FB694
:10258000F894DEBF0FBECDBF0E947D120E947E1266
:102590000E94460A0E947B12882309F46DC05CE306
:1025A000A52E51E0B52E10E000E0902E802F0E9465
:1025B0009D096C01F501E190F1905F01E816F906C3
:1025C00009F454C08091B50181FD0E94A6099701CC
:1025D0002C253D2580E0EE24E394F12CA9014E2129
:1025E0005F21452BE9F18E839F82CE20DF2081E0A1
:1025F000CD2809F480E088870E94891E8160782FA9
:102600009A8789874E815F8168858A850E945F13DA
:10261000000F111FF801E45CFE4F80819181E826D4
:10262000F926F182E0820E94E21190913B01891724
:10263000A1F10E94E21180933B012A960FB6F89413
:10264000DEBF0FBECDBFDF91CF911F910F91FF90E5
:10265000EF90DF90CF90BF90AF909F900C94891235
:102660008F5FEE0CFF1C8D3009F0B8CF0F5F1F4F4E
:102670000430110509F099CF8FEF89838A831B827B
:102680000E94891E8160782F9D838C8349815A81A5
:102690006B818D810E945F13C6CF2A960FB6F89486
:1026A000DEBF0FBECDBFDF91CF911F910F91FF9085
:1026B000EF90DF90CF90BF90AF909F900895CF9311
:1026C000DF93CDB7DEB72B970FB6F894DEBF0FBE02
:1026D000CDBF4F83588769877A878B871E821D827B
:1026E00085E0FE013796DE01119601900D928A95E4
:1026F000E1F749815A816B817C818D819E812B9686
:102700000FB6F894DEBF0FBECDBFDF91CF910C9412
:102710002419FC01808191810C94DA1BCF93C82F7E
:10272000882309F46EC08238C1F40E94E21181FD51
:1027300068C089E30E94081C0E94791C2FEF81EE7B
:1027400094E0215080409040E1F700C0000089E310
:102750000E940F1CCF910C94791C8338A1F40E9425
:10276000E21180FD4EC083E50E94081C0E94791C86
:102770002FEF81EE94E0215080409040E1F700C0BF
:10278000000083E5E5CF8438A1F40E94E21182FDC8
:1027900038C087E40E94081C0E94791C2FEF81EE4C
:1027A00094E0215080409040E1F700C0000087E4B1
:1027B000CFCF8CEF8C0F813AB8F48C2F0E949C21E4
:1027C00081111FC06C2F80910501909106010E941C
:1027D000C31D882329F08C2F0E940F1C0E94791C96
:1027E0008C2F0E94081CB6CF80E28C0F883048F4F2
:1027F000C77081E001C0880FCA95EAF70E94301CBB
:10280000A9CFCF910895882309F44BC0823871F481
:102810000E94E21181FF45C089E30E94081C0E94CA
:10282000791C89E30E940F1C0C94791C833859F49D
:102830000E94E21180FF35C083E50E94081C0E94BF
:10284000791C83E5EFCF843859F40E94E21182FFAE
:1028500028C087E40E94081C0E94791C87E4E2CF0C
:102860009CEF980F913AF0F290E2980F983050F464
:10287000877091E001C0990F8A95EAF7892F0E942D
:10288000361CD2CF9BE5980F933020F490E080E087
:102890000C943A12885A873120F490E080E00C942E
:1028A00050120895CF93C82F0E948E13C93349F454
:1028B0002FEF87EE93E0215080409040E1F700C079
:1028C00000008C2FCF910C940314882321F00E94D8
:1028D000301C0C94791C0895882321F00E94361C2A
:1028E0000C94791C0895BF92CF92DF92EF92FF92E1
:1028F0000F931F93CF93DF936C01D62FC72FFC014B
:10290000158112951F70028101110E944D1C0E94B9
:10291000261CE82E882391F00023D1F08C2F807F95
:10292000803421F080E28D0F883090F082E00E94A8
:10293000C41C0E94261C91E0E82EE926BC2EB2940D
:102940009FE0B922EB2DF0E0EE57F64D0C941529DF
:10295000E12CF4CF1C2F1F70C07F11F01295107F57
:102960000023A9F0112359F080E28D0F883010F078
:10297000D11109C0812F0E94301C0E94791C8D2F1B
:102980000E948E1314C0812F0E94401CF6CF8D2F01
:102990000E940314112359F080E28D0F883010F04B
:1029A000D1112CC0812F0E94361C0E94791C2B2D26
:1029B0002850330B2430310520F40E94E2110E948C
:1029C000A207EE2009F477C10E94221C80FD73C18A
:1029D000F60112820E941C1C0E94A81AC6010E94C5
:1029E0007C160E941C1CDF91CF911F910F91FF90CC
:1029F000EF90DF90CF90BF900C94C91A812F0E9466
:102A0000461CD3CFFC2FFF70FF2EC07FC03219F0C1
:102A1000F29480EFF822DD2369F0D13049F10023F0
:102A200091F1112351F1F601858180FFA8CF8F70BC
:102A3000858323C0002381F0111106C00E94601C11
:102A40008F290E946514B3CF1130C1F70E94601C1A
:102A50008F290E94661CABCF111106C00E946F1C0B
:102A60008F2D0E946C14A3CF113009F4A0CFF6CFA4
:102A7000002329F0163008F09ACF8F2DE2CF1530C1
:102A800008F095CFEDCF112359F3D93349F4FFEF77
:102A900027EE33E0F15020403040E1F700C0000065
:102AA0008D2F0E94031483CF8C2F837009F041C0B7
:102AB00001117DCF4D2F429546954770440F440F2D
:102AC0000D2F0F7010E030E020E0042E04C0000F46
:102AD000111F221F331F0A94D2F760E070E0CB0170
:102AE000D4FF0FC06FE070E080E090E004C0660F9C
:102AF000771F881F991F4A95D2F76095709580952A
:102B00009095C695C695C370602B712B822B932B25
:102B1000C23049F058F4C13019F00E945A1A47CF18
:102B20000E94481A44CF0E946C1A41CF0E94461A54
:102B30003ECF8695002311F08C2F8170882309F4F5
:102B400036CF4D2F429546954770440F440F0D2FB9
:102B50000F7010E030E020E0042E04C0000F111FC1
:102B6000221F331F0A94D2F760E070E0CB01D4FF3C
:102B70000FC06FE070E080E090E004C0660F771F48
:102B8000881F991F4A95D2F760957095809590950A
:102B9000C695C695C370602B712B822B932BC230C8
:102BA00049F058F4C13019F00E941F1B00CF0E9459
:102BB0000D1BFDCE0E94311BFACE0E94821AF7CE69
:102BC000CF70002329F08C2F0E94A81A8D2F39CFA7
:102BD0008D2F0E946C148C2F0E94C91AE8CED23F10
:102BE00089F160F4D03FC9F0D13F29F1002309F405
:102BF00042C01111C4CE8C2F8F7121C0D33F39F147
:102C0000D43FA1F7002369F1CF718C2F0E94A81A3D
:102C100063E08C2F0E94AF1CCACE002341F0153018
:102C200008F0C5CE8C2F8F710E94EC1AC0CE1630E2
:102C300008F0BDCEF7CF8C2F8F71002369F20E9470
:102C4000A81AB5CE8C2F8F710023C9F3C5CF0023EE
:102C500029F08C2F8F710E94931AA9CE0E948E1A90
:102C6000A6CE81E00E94C41C123008F4A0CE82E0FF
:102C70000E94C41C9CCE112359F0D93309F010CF07
:102C80008FEF97EEE3E081509040E040E1F706CF10
:102C90008C2F8F71A1CF4C2F4F706D2FC6010E94CA
:102CA000AA070E94BE1983CE4C2F4F706D2FC6010C
:102CB0000E94AD077CCEDF91CF911F910F91FF90C5
:102CC000EF90DF90CF90BF9008950F931F93CF9315
:102CD000DF93EC01688179818A810E94E41B8C0179
:102CE0000E94431B0E94451AB801CE01DF91CF918B
:102CF0001F910F910C947314CF93DF93EC018B8190
:102D00009C81892B29F08881998189238F3F59F4EF
:102D1000DF91CF910895CE010E946516CE01DF911B
:102D2000CF910C941E07CE010E9443078111F3CF6F
:102D30000E94261C882361F38A81882349F382E05C
:102D4000DF91CF910C94C41C0E944D1C0E945D1C0D
:102D50000C94791C0E94161C0C94A4160E943D1C15
:102D60000C94AA16E92FE295EF70E250EE3070F461
:102D7000F0E0EE56F64D0C941529803F19F020F442
:102D8000883E20F481E00895843FE1F380E00895D7
:102D9000883EC0F3813FD1F7F5CF93FB882780F9B8
:102DA00008950E94DA1B0C94B216CF93DF9300D0E3
:102DB00000D00F92CDB7DEB70F900F900F900F900D
:102DC0000F90DF91CF910895CF93DF9300D000D083
:102DD00000D0CDB7DEB726960FB6F894DEBF0FBE93
:102DE000CDBFDF91CF9108951F93CF93DF93C09113
:102DF000450116E0809146018C1304C0DF91CF910C
:102E00001F910895D0E01C9FF0011D9FF00D11242B
:102E1000E95BFE4F4081518162817381848195819C
:102E20000E94E4162196C770E5CF4091770150913A
:102E300078016091790170917A0180917B01909184
:102E40007C010C94E4161F93CF93DF9380917C0157
:102E5000807FA9F480917901882389F080914501D0
:102E6000C09146016091770170917801A0917A013B
:102E7000B0917B01D62FD72316E0C81304C0DF9191
:102E8000CF911F91089590E0109711F0DF3F19F452
:102E900001968770F2CF189F9001199F300D112471
:102EA000F901E95BFE4F41814713F2CF40814613A0
:102EB000EFCF42814111ECCF438154814A1B5B0B20
:102EC000483C510528F780917C018F708061809388
:102ED0007C01F901E45BFE4F80818F70806180830B
:102EE00087E791E00E947C16DF91CF911F910C94AF
:102EF000F416AF92BF92CF92DF92EF92FF920F93B0
:102F00001F93CF93DF93CDB7DEB761970FB6F894D9
:102F1000DEBF0FBECDBF8C0185E0F801DE011D963E
:102F200001900D928A95E1F7F80140815181E2808C
:102F300087E7C82E81E0D82E60917A0170917B01DD
:102F40006115710509F461C19091770120917801B3
:102F5000892F82238F3F09F458C1A380B480F09059
:102F60007901F501E61BF70BFF2009F4FCC0809105
:102F70007C01382F307FE83CF10508F0B2C03111F8
:102F800079C0FE2C251323C0941321C0E1101FC06B
:102F90008F70806180937C010E941517C6010E948A
:102FA0007C1680917C01F80185838F2D61960FB688
:102FB000F894DEBF0FBECDBFDF91CF911F910F916F
:102FC000FF90EF90DF90CF90BF90AF900895AB2827
:102FD00029F0842F85238F3F09F033C180E0F82F3B
:102FE000F170DF2E80FF3CC08091450120914601A9
:102FF00036E0821315C04D875E878D859E850E94C1
:10300000DA1B292F22952F702230F0F0243018F58A
:103010009F70F1F0F8019581907FD1F4D12C1EC002
:1030200090E0389FF001399FF00D1124E95BFE4FCD
:103030006181651306C06081641303C062816E11F3
:103040000FC001968770D5CF9F7011F0882331F3A0
:10305000805E883018F3C8010E947C16FD2CA5CF35
:10306000EE2009F4A2CF80917C01816080937C01E5
:10307000F12C9BCF251306C0941304C0F801EE2059
:1030800009F48DC04D875E878D859E850E94D1167F
:10309000882319F1EE2009F180917C01803270F0D3
:1030A000209177013091780138872F831986BB866C
:1030B000AA868C87CE0107960E947C1686E0F801CE
:1030C000A7E7B1E001900D928A95E1F70E942317DE
:1030D0000E941517FF24F39468CFC8010E947C1644
:1030E000F9CF311113C07A2DB98AA88A6E2D89893A
:1030F0000E94D51687E791E00E947C1686E0F601D3
:1031000011928A95E9F70E941517B2CF25130FC0C7
:1031100094130DC0E1100BC0F8018583C8010E9413
:103120007C1686E0F60111928A95E9F73ECF4D872D
:103130005E878D859E850E94D116882371F2EE20D0
:1031400061F280917C01803208F4B8CF2091770140
:10315000309178013A8329831B82BD82AC828E83B1
:10316000CE010196A9CFE83CF10508F041C0FE2C44
:10317000EE2009F4B2CF25132AC0941328C0809101
:103180007C0180FD1BC0982F907FC1F0F8018583E2
:10319000903F31F0982F907F905F8F70892B8583BF
:1031A000C8010E947C1686E0F801A7E7B1E0019013
:1031B0000D928A95E1F70E941517F7CE86E0F80187
:1031C000A7E7B1E001900D928A95E1F7EECE4D8729
:1031D0005E878D859E850E94D11681116FCF80916B
:1031E0007C01816080937C01C8010E947C16DDCE49
:1031F0007A2DB98AA88A6E2D89890E94D51686E013
:10320000F60111928A95E9F7D6CFEE2009F465CF41
:103210004D875E878D859E850E94D116F82E882366
:1032200009F45BCF86E0F801A7E7B1E001900D92C9
:103230008A95E1F787E791E00E9489130E9423179E
:10324000BACF81E08E25CBCE1F93CF93DF93CDB73E
:10325000DEB72C970FB6F894DEBF0FBECDBF4F83FD
:10326000588769877A878B879C87CE0107960E944B
:103270007917882369F08A859B85892B39F04F81DE
:103280005885842F85238F3F09F071C016E05FC0F9
:1032900086E0FE013796DE01119601900D928A9527
:1032A000E1F78A859B85892B89F38F81988589230E
:1032B0008F3F61F32091460130E0C901019687708C
:1032C0009927409145014817190671F40E94AE16DE
:1032D000109246011092450186E0E7E7F1E0DF0138
:1032E0001D928A95E9F7D2CF96E0929FD001939FE5
:1032F000B00D1124A95BBE4FFE01319601900D92D5
:103300009A95E1F7809346010E94F416BFCF819F02
:10331000C0011124895B9E4F0E9479178823E9F030
:10332000E09145011E9FF0011124E95BFE4F4081B1
:10333000518162817381848195810E94E41680911C
:10334000450190E00196877099278093450180910F
:103350004501909146018913DACF2C960FB6F89467
:10336000DEBF0FBECDBFDF91CF911F91089569855C
:103370007A858B859C850E94E41688CFEF92FF9218
:103380000F931F93CF93DF938C01892B81F0F12C46
:10339000EE24E394E8012196F8018491843770F4D7
:1033A000843008F05FC08130B1F08230A1F1DF914C
:1033B000CF911F910F91FF90EF900895853709F4F9
:1033C0004CC008F43DC09CE7980F903780F78F778A
:1033D0000E94031449C00E5F1F4FFE01849190E2CA
:1033E000980F983060F48770FE2D01C0FF0F8A950A
:1033F000EAF78F2F0E94501C0E94791C02C00E9485
:103400008E138F2D815030F2EFE9FFE03197F1F705
:1034100000C00000F7CF0E5F1F4FFE01849190E2C5
:10342000980F983050F48770FE2D01C0FF0F8A95D9
:10343000EAF78F2F0E94561CDFCF0E940314E1CFC2
:103440000E5F1F4FFE01C491C150D8F28FE99FE07B
:103450000197F1F700C00000F7CF0E5F1F4FFE018C
:10346000F490CFCF0E948E138E01CBCF08950C9491
:10347000361A0E94371A6093A4017093A5018093B5
:10348000A6019093A7010C94A41608950C94391AE0
:103490000F931F930091A4011091A5012091A60103
:1034A0003091A701602B712B822B932B1F910F91D1
:1034B0000C94391A0F931F930091A4011091A50148
:1034C0002091A6013091A7016023712382239323C9
:1034D0001F910F910C94391A0F931F930091A4011F
:1034E0001091A5012091A6013091A70160277127B5
:1034F000822793271F910F910C94391A0C94361A36
:103500000C947E1A0E94801A6093A0017093A1010E
:103510008093A2019093A3010C94A41660E070E044
:10352000CB010C94821A0F931F9341E050E060E0AE
:1035300070E08A019B0104C0000F111F221F331F7E
:103540008A95D2F7C901B8011F910F910C94821A84
:103550000F931F9341E050E060E070E004C0440F1F
:10356000551F661F771F8A95D2F78091A001909111
:10357000A101A091A201B091A3018A019B01082B96
:10358000192B2A2B3B2BC901B8011F910F910C94C9
:10359000821A0F931F9341E050E060E070E004C096
:1035A000440F551F661F771F8A95D2F7CB01BA01CA
:1035B00060957095809590950091A0011091A10162
:1035C0002091A2013091A3016023712382239323D0
:1035D0001F910F910C94821A0F931F9341E050E0BA
:1035E00060E070E004C0440F551F661F771F8A9586
:1035F000D2F78091A0019091A101A091A201B09178
:10360000A3018A019B01082719272A273B27C90103
:10361000B8011F910F910C94821A0F931F93009180
:10362000A0011091A1012091A2013091A301602B72
:10363000712B822B932B1F910F910C94821A0F9355
:103640001F930091A0011091A1012091A20130913E
:10365000A30160237123822393231F910F910C9464
:10366000821A0F931F930091A0011091A101209144
:10367000A2013091A30160277127822793271F9110
:103680000F910C94821A08952DE0929F800D1124C1
:10369000982F977041E001C0440F9A95EAF78695FC
:1036A0008695869595E0899FF0011124E358FE4F99
:1036B00090E080E070E05191DF0111979B01082EAE
:1036C00002C0369527950A94E2F7217021952527A7
:1036D000242325272C9301968530910561F70895C1
:1036E0002DE0929F800D1124982F977086958695D6
:1036F000869525E0829FF0011124E358FE4F50E0AB
:1037000040E080E0219130E0092E02C036952795F7
:103710000A94E2F721703327042E01C0220F0A9485
:10372000EAF7822B4F5F5F4F4530510559F70895F7
:10373000BF92CF92DF92EF92FF920F931F93CF939E
:10374000DF938C01C090A001D090A101E090A20174
:10375000F090A3018091A4019091A501A091A601F0
:10376000B091A701C82AD92AEA2AFB2ACFE1D0E0E2
:10377000BC2ED701C6010C2E04C0B695A79597950F
:1037800087950A94D2F780FD0EC0219788F7B12C57
:103790008B2DDF91CF911F910F91FF90EF90DF90D4
:1037A000CF90BF900895B8018C2F0E94CA0701974F
:1037B00061F3EECFCF93DF93EC010E94981BBE0123
:1037C000DF91CF910C94CA071F93CF93DF93EB0146
:1037D00090914401992331F0CB01DF91CF911F915A
:1037E0000C94DA1B882379F0CB010E94981B182FC8
:1037F000682FCE010E94441BBE01812FDF91CF9123
:103800001F910C94CA07CB010E94701B182FF4CF94
:10381000682F80910501909106010C94F91D682F85
:1038200080910501909106010C94FB1D809105018A
:10383000909106010C94FD1D8091A80185958595B8
:10384000859508958091A801877008959091A801A9
:10385000977081E009F480E008958091B4010895A3
:103860009091B401892B8093B40108958095909133
:10387000B40198239093B40108951092B40108956F
:103880009091B301892B8093B30108958095909115
:10389000B30198239093B30108951092B301089552
:1038A0009091B201892B8093B201089580959091F7
:1038B000B20198239093B20108951092B201089535
:1038C0008091A901089508950C94631C9091A90119
:1038D000981721F08093A9010C94641C089580919D
:1038E000A901882329F01092A90180E00C94641C9E
:1038F0000895E0910501F09106018091B401808363
:10390000E0910501F091060180819091B301892B2E
:103910008083E0910501F091060180819091B201D0
:10392000892B80839091A901992381F0E091050171
:10393000F09106018081892B80838091050190910F
:1039400006010E94B11D81110E946F1C809105012A
:10395000909106010C94EE1108950C94AC1C98E023
:10396000899F90011124622B6093A8010E94A81ADC
:103970008091A8018595859585950C94AD1C109234
:10398000A80180E00C94AD1C9091A801809589233A
:103990008093A801282F277071F4282F082E000C7F
:1039A000330B9217130639F08595859585950E94FE
:1039B000C91A0C94BF1C0895909327018093260187
:1039C0000895829590E09C01220F331F220F331F30
:1039D0002C7C95958795959587958373282B30E05A
:1039E000C901880F991F8A7A359527952575822BED
:1039F0000895CF93DF93D92F0E94E11CC82F8D2FFC
:103A00000E94E11C9C2FDF91CF91089590E080E00F
:103A10000E94322921E08C3E9E4F09F020E0822F47
:103A2000089582E090E00C94242983E090E00C94C7
:103A30002429CF9384E090E00E942429C82F81E2BA
:103A400090E00E942429982F8C2FCF910895CF9336
:103A5000C92F682F84E090E00E9438296C2F81E202
:103A600090E0CF910C943829AB01BC018FE090E03D
:103A70000C944A29AB01BC0183E190E00C944A29E3
:103A800060E070E0CB010C943A1D60E070E0CB0187
:103A90000E94341D0C94401D6CEE7EEF90E080E09F
:103AA0000E94562960E082E090E00E94382960E0A0
:103AB00083E090E00E9438291092A4011092A501A1
:103AC0001092A6011092A70160E084E090E00E94AD
:103AD000382960E081E290E00E94382960E085E0CA
:103AE00090E00E94382960E086E090E00E9438294A
:103AF0006FEF87E090E00E94382940E050E0BA0183
:103B000088E090E00E944A2960E08DE090E00E9409
:103B1000382940E050E0BA0188E190E00E944A294B
:103B200060E087E190E00E94382940E050E0BA016F
:103B30008CE190E00E944A2960E080E290E00E94DF
:103B4000382940E050E0BA0188E190E00E944A291B
:103B50000C94451D0C944C1D682F8EE090E00C9445
:103B600038299C012E5F3F4FAC01485F5F4F80E0DA
:103B70002417350709F40895F90191919F019923BC
:103B8000B9F38F5FF5CF662349F0FC0132960896B2
:103B90002191261729F0E817F907D1F780E0089559
:103BA00081E008959C01FC0132969FEF80E04191F5
:103BB000461751F09F3F19F4411101C0982F8F5FB4
:103BC0008630A9F79F3F09F40895290F311D97FD0D
:103BD0003A95F90162830895FC0132960896219185
:103BE000261303C0DF0111971C92E817F907B9F7F4
:103BF00008950C94D21D0C94EC1D029626E0FC0155
:103C000011922A95E9F70895089508950C94051ED8
:103C10000E94061E8091E701843049F11092B6019E
:103C200088E190E020E40FB6F894A89580936000B6
:103C30000FBE2093600080E00E94A2070E94061E33
:103C400083B7817F846083BF83B7816083BF7894AB
:103C5000889583B78E7F83BF0FB6F894A89580911F
:103C60006000886180936000109260000FBE08952C
:103C70000895CF930E94041E0E94460A0E94381E97
:103C8000C0E08C2F0E949D09892B31F4CF5FC43096
:103C9000C1F780E0CF91089581E0FCCF08950C94A6
:103CA0004E1E0E94AE160E94E2110E94A2070C94C2
:103CB0004F1E1F921FB61F9211248F939F93AF9395
:103CC000BF938091B601811113C08091DD01909165
:103CD000DE01A091DF01B091E0014196A11DB11D6F
:103CE0008093DD019093DE01A093DF01B093E001AA
:103CF000BF91AF919F918F911F901FBE1F901895FC
:103D000082E084BD93E095BD9AEF97BD80936E00ED
:103D100008952FB7F8948091DD019091DE01A09174
:103D2000DF01B091E0012FBF08952FB7F8946091A3
:103D3000DD017091DE018091DF019091E0012FBFE4
:103D400008959C014FB7F8948091DD019091DE01B8
:103D5000A091DF01B091E0014FBF821B930B08954A
:103D600078941F921FB61F9211248F939F93AF9345
:103D7000BF938091DD019091DE01A091DF01B091B0
:103D8000E0010196A11DB11D8093DD019093DE013C
:103D9000A093DF01B093E001BF91AF919F918F910C
:103DA0001F901FBE1F90189581E08093E00080E275
:103DB0008093D8001092C9008FE19EE40197F1F73B
:103DC00000C0000087E090EBDC018093F00190934D
:103DD000F101A093F201B093F30188E19CE00FB6EA
:103DE000F894A895809360000FBE90936000FFCF79
:103DF0000E94061D811102C00E94AA1D0E94111D71
:103E00008093B5010E94191D9093E2018093E10116
:103E10000E94151D682F70E090E080E00E94461A15
:103E20006091A0017091A1018091A2019091A301E4
:103E30000C94801ACF93C82F1F928F938EEB95E02E
:103E40009F938F930E94C60661E070E080E090E04F
:103E500004C0660F771F881F991FCA95D2F70E946A
:103E6000461A0F900F900F900F90CF910C94AE16B2
:103E7000CF93DF938B3109F4FAC108F09CC18B30EA
:103E800009F4B8C108F06AC1863009F4C6C148F423
:103E9000853009F49EC184E09AE00E942D0680E0FE
:103EA000CCC1873009F4CCC18830A9F783EA9AE005
:103EB0000E942D0684EF99E00E942D060E94151D98
:103EC0001F928F9381EF99E09F938F930E94C60674
:103ED0008FEE99E00E942D060E94111DC82F8CEDD7
:103EE00099E00E942D061F92CF9387ED99E09F9352
:103EF0008F930E94C60685ED99E00E942D068BECFB
:103F000099E00E942D068C2F81701F928F9388EC70
:103F100099E09F938F930E94C60686EC99E00E94D9
:103F20002D068CEB99E00E942D06C1FB882780F9B5
:103F30001F928F9389EB99E09F938F930E94C606FF
:103F400087EB99E00E942D068BEA99E00E942D06EE
:103F5000C2FB882780F91F928F9388EA99E09F938C
:103F60008F930E94C60686EA99E00E942D068DE98D
:103F700099E00E942D06C3FBCC27C0F91F92CF9376
:103F80008AE999E09F938F930E94C60688E999E099
:103F90000E942D060E94191DEC0184E899E00E9400
:103FA0002D06DF93CF938FE799E09F938F930E9425
:103FB000C6068DE799E00E942D0684E699E00E94EE
:103FC0002D068C2F81701F928F9381E699E09F932D
:103FD0008F930E94C6068DB79EB780960FB6F89451
:103FE0009EBF0FBE8DBF8FE599E00E942D0688E42D
:103FF00099E00E942D06C1FB882780F91F928F93BC
:1040000085E499E09F938F930E94C60683E499E02C
:104010000E942D0681E399E00E942D068D2F81706C
:104020001F928F938EE299E09F938F930E94C60612
:104030008CE299E00E942D068AE199E00E942D060B
:10404000D695D1701F92DF9387E199E09F938F936C
:104050000E94C60685E199E00E942D0683E099E062
:104060000E942D06C2FB882780F91F928F9380E063
:1040700099E09F938F930E94C6068EEF98E00E946E
:104080002D068CEE98E00E942D06C3FB882780F950
:104090001F928F9389EE98E09F938F930E94C6069C
:1040A00087EE98E00E942D068DED98E00E942D0687
:1040B000C4FB882780F91F928F938AED98E09F9325
:1040C0008F930E94C60688ED98E00E942D0686EC2C
:1040D00098E00E942D06C5FB882780F91F928F93D8
:1040E00083EC98E09F938F930E94C60681EC98E042
:1040F0000E942D0685EA98E00E942D06C6FB8827BF
:1041000080F91F928F9382EA98E09F938F930E9489
:10411000C6068DB79EB780960FB6F8949EBF0FBEA9
:104120008DBF80EA98E00E942D0688E998E00E9401
:104130002D06C7FBCC27C0F91F92CF9385E998E0E5
:104140009F938F930E94C60683E998E00E942D06F4
:104150000F900F900F900F9081E06FC0803109F4A5
:104160009EC080F48E3009F096CE9091B501892FD3
:104170008B7F92FF84608093B50182FF8DC08FE2B8
:104180009AE081C0863109F49AC0893109F083CE62
:1041900086EC96E00E942D0682E996E00E942D06AC
:1041A0008BE796E00E942D0687E596E00E942D069B
:1041B0008CE296E021C08A3249F190F4873211F105
:1041C00028F48E3108F467CE8D511DC0893209F074
:1041D00062CE82E79AE00E942D060E943407BCCF8F
:1041E000833468F48A3308F0A1C0853359F08833EA
:1041F00009F051CE80EF96E00E942D06ADCF8334BA
:1042000009F049CE80E00E941A1FA6CF82E99AE009
:104210000E942D060E94AA1D9FCF8091B501807F2C
:104220008093B50185ED96E00E942D068EE89AE018
:104230000E942D0681E08093B701DF91CF91089510
:104240009091B501892F8E7F90FF81608093B50199
:1042500080FF03C086E69AE0CFCF89E59AE00E940E
:104260002D068091B501817F8093B50175CF909126
:10427000B501892F8D7F91FF82608093B50181FF09
:1042800008C08CE49AE00E942D068091B5018160FF
:10429000EBCF8EE39AE0B0CF8FE19AE0ADCF909173
:1042A000B501892F877F93FF88608093B50183FFD5
:1042B00003C083E19AE0E7CF86E09AE09DCF8EE1EC
:1042C00096E00E942D060E94E2111F928F9384E0D7
:1042D00096E09F938F930E94C606809111011F92D2
:1042E0008F938DEE95E09F938F930E94C6068091E9
:1042F000C4011F928F938AED95E09F938F930E9444
:10430000C6060E94951E9F938F937F936F9383ECB5
:1043100095E09F938F930E94C6068DB79EB74296F5
:104320000FB6F8949EBF0FBE8DBF16CF89536BCFCB
:1043300080E008950C949821CF93C82F8091B70105
:10434000882331F0813099F01092B70180E00DC0E0
:104350000E942D1C8232D1F78C2F0E94982181114E
:1043600019C08C2F0E94381F8170CF9108950E9430
:104370002D1C823289F38C2F0E949A21811119C041
:10438000C431C9F050F4CB3061F088EB95E00E9465
:104390002D0613C081E090E0E7CFC93261F0C83349
:1043A000A1F785ED96E00E942D068AEB95E00E942C
:1043B0002D0681E0D9CF1092B70180E0D5CF809152
:1043C000C3010895089508959FB7F8941092BA0113
:1043D0009FBF9091E701943009F048C02091E90017
:1043E0002F703091EC00932F917030FD90E8922B5C
:1043F00022E02093E9002091EB0020FF34C02091BF
:10440000EE0027FF30C02091B801222321F0209137
:10441000E80025FF28C01092B80126E03091E8009E
:1044200035FF14C08093F1008091E80085FD27C01E
:104430008091E80080FFFCCF8091E8008E77809328
:10444000E8009F709093E90080E008953091E701C3
:10445000343049F43091EB0035FD05C0215041F472
:1044600081E08093B8019F709093E9008FEF0895E9
:10447000EFE9FFE03197F1F700C00000CFCF8FB731
:10448000F89421E02093BA018FBFDBCFCF93DF9365
:10449000EC0181E08093E9008FEF9091E80081507A
:1044A00095FD06C095ED9A95F1F700008111F5CFC5
:1044B0008091E80085FF14C050E040E068E070E0C3
:1044C000CE010E9465248091E8008E778093E800F9
:1044D00088E0FE01ABEBB1E001900D928A95E1F727
:1044E000DF91CF910895089583ED9AE00E942D0603
:1044F0008091E601811109C00E94F5250E94522693
:104500008091E20084608093E20008958FEC9AE04D
:104510000E942D061092E60108958BEC9AE00C940F
:104520002D0687EC9AE00C942D0683EC9AE00E940D
:104530002D060C94511E2091B9012F5F822F62E34A
:104540000E94F528992319F02093B901089510923B
:10455000B9018091BA018823F1F08091E70184309C
:10456000C1F49091E9009F702091EC00822F81703E
:1045700020FD80E8892B92E09093E9009091EB0078
:1045800090FF04C09091EE0097FD08C08F7080935B
:10459000E9001092BA0108951092F1009091E8009C
:1045A00095FDFACF9091E80090FFF0CF9091E80050
:1045B0009E779093E800EACF42E061EC81E00E94B0
:1045C000712542E261EC82E00C9471258091E90151
:1045D000833009F45FC030F48130C1F1823009F4D6
:1045E0009BC008958A3009F487C08B3009F46DC0F0
:1045F000893009F04EC08091E801813209F049C04C
:104600008091EC019091ED01892B09F042C08091DD
:10461000E800877F8093E8008091E80082FF35C042
:104620009091F3008091F200029729F48091F100BB
:104630008B7F813021F48091F1008093C3018091C0
:10464000E8008B778093E8000C94A5258091E80121
:10465000813AF9F48091E800877F8093E8008091A7
:10466000EC019091ED01892B61F468E08BEB91E016
:1046700070E00E94B4248091E8008B778093E8007A
:10468000089560E090E080E0F3CF8091E701811130
:10469000C3CF08958091E801813AD9F78091EC0168
:1046A0009091ED01892BA9F78091E800877F809395
:1046B000E8008091E80080FFFCCF80911101809399
:1046C000F1008091E8008E77BDCF8091E8018132C2
:1046D00001F78091EC019091ED01892BD1F6809149
:1046E000E800877F8093E8000E94A5258091EA0179
:1046F000809311010C94AE168091E801813249F645
:104700008091E800877F8093E8000E94A525809132
:10471000EB018093C40108958091E801813A09F08A
:10472000B8CF8091E800877F8093E8008091E8000F
:1047300080FFFCCF8091C401C2CF84B7877F84BF44
:104740000FB6F894A895809160008861809360000E
:10475000109260000FBE80E890E00FB6F89480934E
:104760006100909361000FBE0E9473120E94F525B4
:104770000E9452268091E20084608093E20084EEE1
:1047800091E20E94DC1C78940E94DA280E947F1239
:1047900087E091E00E94DD1182EB9AE00E942D06F5
:1047A0008091E701853039F00E94B1120E947D129C
:1047B0000E947E12F5CF8EEA9AE00E942D060E949A
:1047C000081E8091E501882359F30E94391E882331
:1047D00039F30E944F24E4CF0C94EE23E92FFF27F6
:1047E000E330F105E9F060F4E130F10509F448C087
:1047F000329709F44AC0F0E0E0E090E080E025C0A4
:10480000E132F10571F1E232F105A9F761157105A7
:1048100009F440C08DE49BE061307105B1F0EBCF4D
:10482000992781309105B1F0009749F0029719F767
:10483000E7EDFAE0E491F0E087ED9AE006C0E5EFFD
:10484000FAE0E491F0E085EF9AE0DA018D939C9331
:10485000CF010895EBEEFAE0E491F0E08BEE9AE000
:10486000F4CFE9E0F0E08BE09BE06115710569F3BE
:10487000E9E0F0E084E29BE06130710531F3BBCF09
:10488000E2E1F0E08BE39BE0E0CFE2E4F0E089EFEF
:104890009AE0DBCFE0E4F0E08FE69BE0D6CF80E16A
:1048A00089BD82E189BD09B400FEFDCF8091D800A9
:1048B0008F7D8093D8008091E00082608093E0003B
:1048C0008091E00081FDFCCF0895AF92BF92CF921E
:1048D000DF92FF920F931F93CF93DF936C01EB0155
:1048E0008A010E94C425F82E811123C001151105EB
:1048F00039F0F80180819181C81BD90BC80ED91EEF
:10490000B12CA12C2097A9F08091E80085FD22C050
:104910008091E8008E778093E80001151105A1F0E1
:10492000F80180819181A80EB91EB182A08285E034
:10493000F82E8F2DDF91CF911F910F91FF90DF9077
:10494000CF90BF90AF9008950E94C4258823D1F2E4
:10495000F82EEFCFF60181916F018093F10021973E
:10496000FFEFAF1ABF0ACECFFC018091EE0190910C
:10497000EF0186179707A0F06115710529F4909152
:10498000E8009E779093E80090E06115710551F47E
:10499000911108C08091E80082FF34C080E0089542
:1049A000BC01F2CF8091E7018823C1F18530C1F1CC
:1049B0008091E80083FD30C08091E80082FDEACF5D
:1049C0008091E80080FFE1CF8091F3002091F20018
:1049D000382F6115710519F02830310558F091E034
:1049E0002830310509F090E02091E8002E772093DF
:1049F000E800CBCF81918093F100615071092F5F66
:104A00003F4FE7CF8091E701882341F0853041F0A7
:104A10008091E80083FFBECF81E0089582E0089591
:104A200083E00895FC018091EE019091EF018617DB
:104A30009707A0F06115710529F48091E8008E7741
:104A40008093E80090E06115710551F4911108C060
:104A50008091E80082FF35C080E00895BC01F2CF6C
:104A60008091E7018823C9F18530C9F18091E80080
:104A700083FD31C08091E80082FDEACF8091E8009B
:104A800080FFE1CF8091F3002091F200382F611573
:104A9000710519F02830310558F091E028303105C2
:104AA00009F090E08091E8008E778093E800CBCF0A
:104AB00084918093F1003196615071092F5F3F4FCF
:104AC000E6CF8091E701882341F0853041F0809165
:104AD000E80083FFBDCF81E0089582E0089583E080
:104AE0000895982F973028F08F708093E90081E027
:104AF00008959093E900242F762F50E0981731F015
:104B00007091EC002091ED005091F00021FD02C069
:104B10009F5FE8CF3091EB003E7F3093EB00309108
:104B2000ED003D7F3093ED003091EB00316030932C
:104B3000EB007093EC002093ED005093F000209177
:104B4000EE0027FDE5CF80E008958091E80187FF22
:104B500013C08091E80082FF06C08091E8008B7747
:104B60008093E80004C08091E7018111F2CF08959D
:104B70008091E7018823D9F38091E80080FFF8CF86
:104B80008091E8008E77ECCF2091E4003091E50031
:104B900095E6A9012091EC00822F817020FF06C0CC
:104BA0008091E80080FF06C080E008952091E80031
:104BB00022FD1AC08091E701882389F0853089F0B1
:104BC0008091EB0085FD0FC02091E4003091E5005D
:104BD00042175307F9F29150E1F684E0089582E01C
:104BE000089583E0089581E008950E9463260E945D
:104BF0006B26E0EEF0E0808181608083E8EDF0E0FC
:104C000080818F77808319BCA7EDB0E08C918E7F77
:104C10008C9380818F7E80831092E60108950F939C
:104C20001F93CF93DF930E9463260E946B26C8EDEB
:104C3000D0E088818F7788838881806888838881A5
:104C40008F7D888319BC1092E7011092E3011092C6
:104C5000E5011092E40100EE10E0F80180818B7F05
:104C6000808388818160888342E060E080E00E94E8
:104C70007125E1EEF0E080818E7F8083E2EEF0E04E
:104C8000808181608083808188608083F801808159
:104C90008E7F8083888180618883DF91CF911F918F
:104CA0000F910895E8EDF0E080818F7E8083E7ED3D
:104CB000F0E080818160808384E082BF81E0809326
:104CC000E6010C940F26E8EDF0E080818E7F808372
:104CD0001092E20008951092DA001092E100089517
:104CE0001F920F920FB60F9211242F933F934F9361
:104CF0005F936F937F938F939F93AF93BF93EF9344
:104D0000FF938091E10082FF0BC08091E20082FF5F
:104D100007C08091E1008B7F8093E1000E949B227D
:104D20008091DA0080FF19C08091D80080FF15C003
:104D30008091DA008E7F8093DA008091D90080FF25
:104D400096C080E189BD82E189BD09B400FEFDCF36
:104D500081E08093E7010E9474228091E10080FF4E
:104D600019C08091E20080FF15C08091E2008E7F23
:104D70008093E2008091E20080618093E200809164
:104D8000D80080628093D80019BC85E08093E70149
:104D90000E9491228091E10084FF2BC08091E2006B
:104DA00084FF27C080E189BD82E189BD89B5982F44
:104DB000917080FFFBCF8091D8008F7D8093D800C9
:104DC0008091E1008F7E8093E1008091E2008F7EF0
:104DD0008093E2008091E20081608093E200809104
:104DE000E301882309F449C084E08093E7010E942D
:104DF00095228091E10083FF29C08091E20083FF2A
:104E000025C08091E100877F8093E10082E080935C
:104E1000E7011092E3018091E1008E7F8093E10031
:104E20008091E2008E7F8093E2008091E2008061B9
:104E30008093E20042E060E080E00E947125809172
:104E4000F00088608093F0000E948D22FF91EF9126
:104E5000BF91AF919F918F917F916F915F914F9192
:104E60003F912F910F900FBE0F901F90189519BC76
:104E70001092E7010E94862270CF8091E30087FDA7
:104E800093E09093E701B3CF1F920F920FB60F926A
:104E900011242F933F934F935F936F937F938F933F
:104EA0009F93AF93BF93CF93DF93EF93FF93D091F3
:104EB000E900DF708091EC00C82FC17080FDC0E870
:104EC0001092E9008091F000877F8093F000789441
:104ED0000E9488271092E9008091F00088608093FA
:104EE000F000CD2BCF70C093E900FF91EF91DF91DF
:104EF000CF91BF91AF919F918F917F916F915F9172
:104F00004F913F912F910F900FBE0F901F901895CA
:104F10001F93CF93DF93CDB7DEB7AA970FB6F89460
:104F2000DEBF0FBECDBF88EE91E02091F100FC0105
:104F30002193CF01F1E0803F9F07B9F70E94E6225D
:104F40008091E80083FF1EC18091E8019091E90102
:104F50009A3008F017C1E92FF0E0E056F64D0C94B6
:104F60001529803899F0823809F00CC18091EC0144
:104F70008F70873008F006C18093E9008091EB00C4
:104F800085FB882780F91092E90006C08091E40132
:104F90009091E501911182609091E800977F909344
:104FA000E8008093F1001092F1008091E8008E7784
:104FB000E5C0882309F4D3C0823009F0E3C08091B2
:104FC000EA018111D6C08091EC018F702FEF280F7C
:104FD000263008F0D7C08093E9002091EB0020FF35
:104FE000C8C0933031F48091EB0080628093EB0075
:104FF000C0C09091EB0090619093EB0021E030E015
:1050000001C0220F8A95EAF72093EA001092EA0085
:105010008091EB008860EACF8111B4C01091EA0161
:105020001F778091E3008078812B8093E30080914B
:10503000E800877F8093E8000E94A5258091E80022
:1050400080FFFCCF8091E30080688093E30082E0E2
:10505000111183E08093E70195C08058823008F0F9
:1050600091C08091EA019091EB018C3D23E0920781
:10507000A1F583E08A838AE289834FB7F894DE0141
:10508000139620E03EE051E2E32FF0E0509357000A
:10509000E49120FF03C0E295EF703F5FEF708E2F29
:1050A00090E0EA30C0F0C7968D939D932F5F243136
:1050B00059F74FBF8091E800877F8093E8006AE24C
:1050C00070E0CE0101960E94B4248091E8008B77B5
:1050D0008093E80057C0C096E7CF6091EC017091D3
:1050E000ED01AE014F5F5F4F0E94EC23BC01892BA5
:1050F00009F448C09091E800977F9093E800898177
:105100009A810E941225E1CF8038E1F58091E80074
:10511000877F8093E8008091E3018093F10045CF81
:10512000811130C09091EA01923060F58091E800E1
:10513000877F8093E8009093E3010E94A5258091EA
:10514000E301882311F084E005C08091E30087FD2E
:10515000FACF81E08093E7010E94DC2213C08091A6
:10516000EA01813079F481E0933009F080E08093A6
:10517000E5011092E9008091E800877F8093E800C4
:105180000E94A5258091E80083FF0AC08091E80075
:10519000877F8093E8008091EB0080628093EB0032
:1051A000AA960FB6F894DEBF0FBECDBFDF91CF91A8
:1051B0001F910895CF938091E7018823A1F0C091BA
:1051C000E900CF709091EC00892F817090FD80E80C
:1051D000C82B1092E9008091E80083FD0E94882787
:1051E000CF70C093E900CF910895991B79E004C076
:1051F000991F961708F0961B881F7A95C9F7809516
:105200000895AA1BBB1B51E107C0AA1FBB1FA6170D
:10521000B70710F0A61BB70B881F991F5A95A9F75F
:1052200080959095BC01CD010895EE0FFF1F05906C
:10523000F491E02D0994FB01DC0102C005900D9270
:1052400041505040D8F70895F999FECF92BD81BDE5
:10525000F89A992780B50895A6E1B0E044E050E0BF
:105260000C945E29A8E1B0E042E050E00C945E2985
:10527000262FF999FECF92BD81BDF89A019700B40F
:10528000021639F01FBA20BD0FB6F894FA9AF99AAF
:105290000FBE08950396272F0E9439290E943829AE
:1052A000252F0E943929242F0C9439290196272F64
:1052B0000E9439290C943829DC01CB01FC01F999B1
:1052C000FECF06C0F2BDE1BDF89A319600B40D9252
:1052D00041505040B8F70895F894FFCF640F6C0F19
:1052E000730F780F7D0F820F870F8C0F910F960F22
:1052F0009B0FA00F660F660F660F660F660F660F97
:10530000660F660FAA14AA1402150215D714D71433
:10531000D714D7145415E015EF15EF154B16D71405
:10532000D7145416BD16BD16C616C616C816C61610
:10533000C616C616BD16BD16CD16C616C616CD1691
:10534000B127D927C228D927C2280C282D28C2283E
:0453500084289028F5
:105354000001000101AA01DF214622E221E32173B9
:10536400220193F4F6369766C63435323331F7F5B5
:065374009094910001007D
:00000001FF
